S00F000032302D554152542E737265634A
S214400000483900204508400041084000410840006B
S2144000104108400041084000410840000000000000
S2144000200000000000000000000000004108400002
S21440003041084000000000004108400041084000E0
S2144000404108400041084000410840004108400047
S2144000504108400041084000410840004108400037
S214400060410840004108400000000000F105400003
S214400070050640001906400041084000410840007F
S2144000800000000000000000410840004108400019
S214400090410840004108400041084000890C4000AB
S2144000A041084000410840004108400041084000E7
S2144000B041084000410840004108400041084000D7
S2144000C041084000410840004108400010B5054C3A
S2144000D0237833B9044B13B10448AFF300800123AF
S2144000E0237010BD6C0800200000000084494000CA
S2144000F0084B10B51BB108480849AFF300800848C4
S214400100036803B910BD074B002BFBD0BDE8104079
S214400110184700BF000000008449400070080020D7
S214400120844940000000000010B50E480E4B98472A
S21440013000203E210D4B98470D4CA0470028FCD090
S2144001400C4B98470C4A0D4B9A620D4CA047002822
S214400150FCD010200B4B98470B4B98470148024B5E
S214400160984710BD000E2707090A40009506400034
S214400170E9064000F9064000013F132000040E4007
S214400180090740002D064000F5084000A8B92DE9B3
S214400190F0410C469046002A0ADD8F18084E094D5D
S2144001A0306821462B6898470134BC42F8D101E0BC
S2144001B04FF000084046BDE8F0814FF0FF307047F2
S2144001C03C090020340900200138022818D82DE9BF
S2144001D0F0410E46144682B10D46DFF838800C4F8B
S2144001E0D8F8000015F8011B3B68984700280ADB42
S2144001F0A81B013CF4D1BDE8F0810020BDE8F081A9
S2144002004FF0FF3070474FF0FF30BDE8F08100BF41
S214400210380900203C09002010B54FF40042104B2E
S2144002205A600B200F4CA0470C20A0470D20A0473B
S21440023013204FF060510C4CA04714204FF06051F3
S214400240A04723200949A0474C200949A047094810
S2144002504FF4C0614FF00062074B984710BD00BF97
S21440026050140E40190740008903400079000028CA
S21440027059000028000E0E40AD0440000163704750
S214400280416370474264B1F1C05F2FD007D8B1F1E7
S214400290006F14D0B1F1805F1ED039B97047B1F10C
S2144002A0205F37D004D8B1F1005F29D04260704754
S2144002B0B1F1405F2ED0B1F1605F2BD0F6E710B4BD
S2144002C0016F046FD343214019400167416F446F6B
S2144002D021400B4043671AE0036F13430367436FA5
S2144002E0416F0B4023EA02034367DFE7036F016F6A
S2144002F00B4023EA02030367436F13434367D5E784
S214400300036F13430367436F13434367CEE742606D
S2144003105DF8044B704700BF416412F0010F14BFF4
S2144003204166016612F00A0F14BF0162416212F084
S214400330020F02D0C0F8801004E012F0080F18BF79
S214400340C0F8841041610160704700BF10B441643A
S214400350019C0CB1416600E001660BB1016500E00E
S21440036041650AB1016300E04163016101605DF8E7
S214400370044B7047836B194214BF0120002070471E
S214400380C06C7047806C704770B582B00D464309AC
S21440039003F5001303F207735C0201F0F043B3F178
S2144003A0005F47D009D8B3F1805F21D0B3F1C05F7A
S2144003B02FD0B3F1006F6FD109E0B3F1405F55D055
S2144003C0B3F1605F52D0B3F1205F44D064E000F0F8
S2144003D01F000126864020464FF000613246304BD3
S2144003E0984715F0010F14BF66662666012054E054
S2144003F000F01F000126864020464FF080513246CE
S214400400274B984715F0010F14BF666626660120F5
S21440041043E000F01F000126864020464FF0C051C2
S21440042032461F4B984715F0010F14BF6666266686
S214400430012032E000F01F000126864020464FF0A3
S21440044000513246164B984715F0010F14BF6666AA
S2144004502666012021E000F01F030126204606FA0A
S21440046003F12A460F4B9847304616E000F01F032C
S214400470012605F0605205EA06010091204606FA7C
S21440048003F1B2F1605F14BF00220122C5F380037E
S214400490054CA047304600E0002002B070BD00BFCB
S2144004A085024000190340004D03400070B582B0FD
S2144004B006460D46144602F0F043B3F1005F38D0CE
S2144004C009D8B3F1805F1CD0B3F1C05F25D0B3F13B
S2144004D0006F50D109E0B3F1405F3AD0B3F1605FAE
S2144004E037D0B3F1205F30D045E04FF000612A4668
S2144004F0224B984714F0010F14BF756635660120ED
S2144005003AE04FF080512A461C4B984714F0010FB2
S21440051014BF7566356601202EE04FF0C0512A465E
S214400520164B984714F0010F14BF756635660120C8
S21440053022E04FF000512A46104B984714F0010F26
S21440054014BF75663566012016E00D4B98470120AE
S21440055012E004F0605204F001030093304629464E
S214400560B2F1605F14BF00220122C4F38003054C41
S214400570A047012000E0002002B070BD8502400088
S214400580190340004D0340002DE9F8438146884654
S214400590124B984705464846114B9847054013D09E
S2144005A0104C04F160062368434508D1616829422F
S2144005B005D0E36840469847636825EA0305B44299
S2144005C002D01034002DEED1074B1B6823B1074BE9
S2144005D01B680BB148469847BDE8F8838103400046
S2144005E0850340008C080020400900208808002031
S2144005F008B502480B21024B984708BD000E0E4036
S2144006008905400008B502480C21024B984708BDB2
S21440061000100E408905400008B502480D21024BE7
S214400620984708BD00120E4089054000184A136BD3
S21440063023F0700318431063936E13F0080F03D033
S21440064009E0013B03D11EE04FF4006310498A6E77
S21440065012F0080FF5D00E4A136B23F0030343F055
S21440066002031363906E10F0080004D00020704719
S214400670013B03D109E04FF4006305498A6E12F04E
S214400680080FF5D07047012070470120704700BF23
S21440069000040E4038B111490B6A114A1A40114BFA
S2144006A013430B6270470D4A136A23F45C1323F01E
S2144006B0030343F45C1343F00103090289B20B437E
S2144006C01362936E13F0010FFBD0044A136A43F093
S2144006D09B7343F480331362704700BF00040E40A0
S2144006E0FCFFC8FE02003701024B986E00F48030D3
S2144006F0704700BF00040E404FF00052014B9A6214
S214400700704700BF00040E40024B986E00F0020097
S214400710704700BF00040E4022281ED81F280CD861
S214400720114B9A69012383401A40934217D0012304
S21440073083400D4A1361002070470B4BD3F80821C5
S2144007402038012383401A4093420AD00123834035
S214400750054AC2F80031002070470120704700204B
S21440076070470020704700BF00040E4010B4890157
S2144007704318022444504FF0FF319962196A5A6078
S2144007805DF8044B704700BF89010523435070470E
S214400790890102234350704700EB8111C8697047B6
S2144007A000EB8111CA61704700EB81114A627047C5
S2144007B000EB8111086A704710B4AC2303600B68E5
S2144007C04A68B3FBF2F31B095C1E4FF6FE72944276
S2144007D00AD803628B68436040F20223C0F8203197
S2144007E050230360002000E001205DF8044B704772
S2144007F0436913F0020F1ABFC16100200120704701
S214400800436913F0010F1DBF83690B700020012060
S214400810704700BF436913F0020F1DBFC1F30801C4
S214400820C161002001207047436913F0010F05D0D5
S2144008308369C3F308030B600020704701207047AC
S214400840FEE700BF08B5204B204A9A4213D9204BFA
S2144008501D4A9A421FD21146043203339B1A23F094
S21440086003030433194A134452F8040B41F8040BAB
S2144008709A42F9D10FE0144B144A9A420BD2144BC9
S214400880114A9A1A134881182AB151F8042943F894
S214400890042D8142F9D100BF0F4B104A9A420BD229
S2144008A0131D0F4AD21A22F003021A44043B0021B9
S2144008B043F8041B9342FBD10A4B0B4A9A600B4BFE
S2144008C098470B4B9847FEE70000002084494000BD
S2144008D06C08002080494000480900206C08002031
S2144008E04B09002000ED00E000004000911740005A
S2144008F0210D40003D4B1B6B03F00303032B5DD8DB
S214400900DFE803F0020E2B2B394B5B6913F0800FA8
S21440091014BF4FF400424FF4FA42364B1A604DE093
S214400920324B1B6A13F0807F03D0334A314B1A6038
S21440093044E0324A2F4B1A602C4B1B6A03F070037C
S214400940102B02D0202B04D038E02D4A294B1A60B9
S21440095034E0294A274B1A6030E0244B1B6A13F0D8
S214400960807F03D0244A234B1A6012E0234A214B4F
S2144009701A601E4B1B6A03F07003102B02D0202B0C
S21440098004D006E01E4A1B4B1A6002E01A4A194B76
S2144009901A60164B1B6B03F00303022B134A07BF68
S2144009A0936A926AD36AD26A1248C3F30A410368CA
S2144009B001FB0333D2B2B3FBF2F303600B4B1B6B6A
S2144009C003F07003702B07D10A4A13680D49A1FB48
S2144009D003135B0813607047044B1A6B0549C2F358
S2144009E002120B68D3400B60704700BF00040E40F5
S2144009F010140E4000000020001BB70000093D0008
S214400A0000127A00ABAAAAAA1A4B984207D84FF00F
S214400A108063194A136002F5007213607047174BE3
S214400A20984206D8164B144A136002F500721360BB
S214400A307047144B984206D8134B0F4A136002F582
S214400A40007213607047114B984206D8104B0A4A02
S214400A50136002F50072136070470E4B984294BFC5
S214400A604FF004230C4B044A136002F500721360E7
S214400A70704700BFFF2C3101000A0E40FF5962024A
S214400A8000010004FF86930300020004FFB3C40481
S214400A9000030004FFE0F50500050004094B1B6851
S214400AA013B9094A074B1A60064B1B681A180749C0
S214400AB0914204DB1046034A1060184670474FF0D8
S214400AC0FF307047FC08002048390020FC7F022099
S214400AD04FF0FF30704700BF4FF400534B6000208C
S214400AE0704700BF0120704700207047F0B583B0C4
S214400AF005460C4600230193184B984207D11F46E3
S214400B00174E38462146B0470028FAD117E0154B15
S214400B10984207D11E46124D30462146A847002827
S214400B20FAD118E0104B984209D11E460F4D304678
S214400B3001A9A8470028FAD1019B23700BE00C4B73
S214400B409D4208D11E46094D304601A9A8470028B7
S214400B50FAD1019B237003B0F0BD00BF00060E40E3
S214400B600108400000080E400040024029084000AE
S214400B700080024070B50C46184B984208D11E467D
S214400B80174D30462146A8470028FAD1012070BDAF
S214400B90144B984208D11E46114D30462146A84770
S214400BA00028FAD1012070BD0F4B984208D11E464E
S214400BB00E4D30462146A8470028FAD1012070BD88
S214400BC00B4B984208D11E46084D30462146A84752
S214400BD00028FAD1012070BD002070BD00060E40EE
S214400BE0F107400000080E40004002401508400053
S214400BF00080024030B585B016484FF4C0614FF0D3
S214400C000062154B98470820144DA847144C154BC6
S214400C101C60154A154B1A60154A164B1A60164B3F
S214400C2001934FF4E13302934FF40063039308209B
S214400C30A847204601A9114B9847114D2B68986844
S214400C400021104CA0472B6858680021A04705B0EB
S214400C5030BD00BF000E0E40AD04400019074000F6
S214400C6000060E403C090020750B40003809002065
S214400C70ED0A400034090020000E2707B90740005F
S214400C80300400201119400000B583B01D480021F3
S214400C901D4B98470190019B1C484FF400211C4B6C
S214400CA0984728B919484FF400211A4B984704E052
S214400CB016484FF40021184B984714484FF48011BB
S214400CC0134B984728B911484FF48011114B984759
S214400CD004E00E484FF480110F4B98470F484FF4EE
S214400CE080110B4B984728B90C484FF48011094B9C
S214400CF0984704E009484FF48011074B984703B0E3
S214400D005DF804FB00000140B1074000000E0E40B5
S214400D10750340007D0240008102400000120E40F4
S214400D202DE9F04F85B0804B9847804B98470B2075
S214400D307F4DA8477F4E0024009430464FF4002154
S214400D40012223467C4FB8477C4B98477C487D4FD2
S214400D50B8477D48B8471720A8477C4F38462146B5
S214400D6044F204027A4B9847384621464FF40052E4
S214400D70784B98474FF40002774B1A603846214626
S214400D801022764B984738462146754B9847754B08
S214400D909847754D28464FF48011744B9847304617
S214400DA04FF48011724B98474FF40028C6F80080E5
S214400DB0336943EA080333616E4A136943F00D030F
S214400DC013612B6843F480132B602B6943F4801324
S214400DD02B6138462146684B9847C6F830804FF41A
S214400DE080136B63A5F540650FF23419D9E9008985
S214400DF0DFF874B1B246614C28460DF10F01A047AA
S214400E000028F9D19DF80F10A1F13103082B00F20C
S214400E108180DFE803F0050915212E3B4753690022
S214400E204948484B9847E6E7484800214C4B984786
S214400E304FF40023CAF834305148424B9847DAE71B
S214400E40424800214C4B98474FF40023CAF83030B4
S214400E504C483C4B9847CEE73C480021404B98478F
S214400E6050464FF48011414B98474748354B98477A
S214400E70C1E736480021404B984750464FF4801112
S214400E803B4B984741482F4B9847B4E72F480021A3
S214400E90334B98474FF48013CBF830303C48294BBF
S214400EA09847A8E729480021334B98474FF48013CA
S214400EB0CBF834303748234B98479CE7234C2046A2
S214400EC00021354B9847354B98470022344B354EDA
S214400ED0B047354B98470246204600211D4B984761
S214400EE03248184B984786E7184C204600212A4B34
S214400EF098472A4B984742464B462A4EB0472A4B7D
S214400F009847024620460021124B984728480D4BEA
S214400F10984770E72748284B98476CE7AFF3008020
S214400F20666666666666F63F29014000190240001E
S214400F3019074000000E0E404D034000F50B4000E0
S214400F40B8474000011940001048400000000140EA
S214400F506D074000A107400000E100E0A9074000FF
S214400F6089074000890C400000120E408102400074
S214400F707D02400000040E409107400001084000FA
S214400F805C4840006C4840007C4840008C4840002C
S214400F90A0484000B0484000990740004112400039
S214400FA00000E03F2D13400051174000C04840006D
S214400FB0D0484000E0484000E117400081F0004142
S214400FC002E000BF83F0004330B54FEA41044FEAE9
S214400FD0430594EA050F08BF90EA020F1FBF54EA84
S214400FE0000C55EA020C7FEA645C7FEA655C00F020
S214400FF0E2804FEA5454D4EB5555B8BF6D420CDDF1
S2144010002C4480EA020281EA030382EA000083EA73
S214401010010180EA020281EA0303362D88BF30BD13
S21440102011F0004F4FEA01314FF4801C4CEA113169
S21440103002D0404261EB410113F0004F4FEA0333C8
S2144010404CEA133302D0524263EB430394EA050F53
S21440105000F0A780A4F10104D5F1200E0DDB02FAC2
S2144010600EFC22FA05F2801841F1000103FA0EF256
S214401070801843FA05F359410EE0A5F120050EF11C
S214401080200E012A03FA0EFC28BF4CF0020C43FA4D
S21440109005F3C01851EBE37101F0004507D54FF05A
S2144010A0000EDCF1000C7EEB00006EEB0101B1F5AA
S2144010B0801F1BD3B1F5001F0CD349085FEA3000F0
S2144010C04FEA3C0C04F101044FEA445212F5800FFB
S2144010D080F09A80BCF1004F08BF5FEA500C50F198
S2144010E0000041EB045141EA050130BD5FEA4C0C7B
S2144010F0404141EB010111F4801FA4F10104E9D104
S21440110091F0000F04BF01460020B1FA81F308BFFA
S2144011102033A3F10B03B3F120020CDA0C3208DDC6
S21440112002F1140CC2F10C0201FA0CF021FA02F1A1
S2144011300CE002F11402D8BFC2F1200C01FA02F111
S21440114020FA0CFCDCBF41EA0C019040E41AA2BF36
S21440115001EB0451294330BD6FEA04041F3C1CDAFE
S2144011600C340EDC04F11404C4F1200220FA04F01E
S21440117001FA02F340EA030021FA04F345EA0301C8
S21440118030BDC4F10C04C4F1200220FA02F001FA8A
S21440119004F340EA0300294630BD21FA04F029460C
S2144011A030BD94F0000F83F4801306BF81F48011A5
S2144011B00134013D4EE77FEA645C18BF7FEA655C18
S2144011C029D094EA050F08BF90EA020F05D054EAEA
S2144011D0000C04BF1946104630BD91EA030F1EBFEF
S2144011E00021002030BD5FEA545C05D140004941F3
S2144011F028BF41F0004130BD14F580043CBF01F5E6
S214401200801130BD01F0004545F0FE4141F47001CB
S2144012104FF0000030BD7FEA645C1ABF19461046A6
S2144012207FEA655C1CBF0B46024650EA013406BFA7
S21440123052EA033591EA030F41F4002130BD00BF66
S21440124090F0000F04BF0021704730B54FF4806423
S21440125004F132044FF000054FF0000150E700BFA4
S21440126090F0000F04BF0021704730B54FF4806403
S21440127004F1320410F0004548BF40424FF00001F0
S2144012803EE700BF42004FEAE2014FEA31014FEA33
S21440129002701FBF12F07F4393F07F4F81F0605182
S2144012A0704792F0000F14BF93F07F4F704730B5F1
S2144012B04FF4607401F0004521F0004120E700BF84
S2144012C050EA010208BF704730B54FF000050AE00B
S2144012D050EA010208BF704730B511F0004502D50C
S2144012E0404261EB41014FF4806404F132045FEA0E
S2144012F0915C3FF4DCAE4FF003025FEADC0C18BFB3
S21440130003325FEADC0C18BF033202EBDC02C2F1A8
S214401310200300FA03FC20FA02F001FA03FE40EA3A
S2144013200E0021FA02F11444C1E600BF70B54FF03A
S214401330FF0C4CF4E06C1CEA11541DBF1CEA13551C
S21440134094EA0C0F95EA0C0F00F0DEF82C4481EA84
S214401350030621EA4C5123EA4C5350EA013518BFA4
S21440136052EA033541F4801143F4801338D0A0FB91
S21440137002CE4FF00005E1FB02E506F00042E0FB3E
S21440138003E54FF00006E1FB03569CF0000F18BF44
S2144013904EF0010EA4F1FF04B6F5007F64F54074EC
S2144013A004D25FEA4E0E6D4146EB060642EAC6217F
S2144013B041EA55514FEAC52040EA5E504FEACE2EEC
S2144013C0B4F1FD0C88BFBCF5E06F1ED8BEF1004FEF
S2144013D008BF5FEA500E50F1000041EB045170BD6B
S2144013E006F0004646EA010140EA020081EA0301AF
S2144013F0B4EB5C04C2BFD4EB0C0541EA045170BDAB
S21440140041F480114FF0000E013C00F3AB8014F124
S214401410360FDEBF002001F0004170BDC4F100046D
S214401420203C35DA0C341BDC04F11404C4F12005EE
S21440143000FA05F320FA04F001FA05F240EA020049
S21440144001F0004221F0004110EBD37021FA04F67F
S21440145042EB06015EEA430E08BF20EAD37070BD39
S214401460C4F10C04C4F1200500FA04F320FA05F098
S21440147001FA04F240EA020001F0004110EBD3709A
S21440148041F100015EEA430E08BF20EAD37070BD0A
S214401490C4F1200500FA05F24EEA020E20FA04F3E3
S2144014A001FA05F243EA020321FA04F001F0004192
S2144014B021FA04F220EA020000EBD3705EEA430E03
S2144014C008BF20EAD37070BD94F0000F0FD101F032
S2144014D00046400041EB010111F4801F08BF013C6B
S2144014E0F7D041EA060195F0000F18BF704703F0A9
S2144014F00046520043EB030313F4801F08BF013D30
S214401500F7D043EA0603704794EA0C0F0CEA1355EB
S21440151018BF95EA0C0F0CD050EA410618BF52EAA5
S2144015204306D1D181EA030101F000414FF00000AB
S21440153070BD50EA410606BF1046194652EA4306B9
S21440154019D094EA0C0F02D150EA013613D195EA2D
S2144015500C0F05D152EA03361CBF104619460AD175
S21440156081EA030101F0004141F0FE4141F470017F
S2144015704FF0000070BD41F0FE4141F4780170BD6F
S21440158070B54FF0FF0C4CF4E06C1CEA11541DBFD4
S2144015901CEA135594EA0C0F95EA0C0F00F0A7F8D6
S2144015A0A4EB050481EA030E52EA03354FEA013103
S2144015B000F088804FEA03334FF0805545EA131316
S2144015C043EA12634FEA022245EA111545EA1065DE
S2144015D04FEA00260EF000419D4208BF964244F175
S2144015E0FD0404F5407402D25B084FEA3202B61A94
S2144015F065EB03055B084FEA32024FF480104FF468
S214401600002CB6EB020E75EB030E22BFB61A7546DB
S21440161040EA0C005B084FEA3202B6EB020E75EB6E
S214401620030E22BFB61A754640EA5C005B084FEAD6
S2144016303202B6EB020E75EB030E22BFB61A7546A3
S21440164040EA9C005B084FEA3202B6EB020E75EBAE
S214401650030E22BFB61A754640EADC0055EA060E6F
S21440166018D04FEA051545EA16754FEA06164FEAB2
S214401670C30343EA52734FEAC2025FEA1C1CC0D15E
S21440168011F4801F0BD141EA00014FF000004FF0EB
S214401690004CB6E711F4801F04BF01430020B4F1AC
S2144016A0FD0C88BFBCF5E06F3FF6AFAEB5EB030C64
S2144016B004BFB6EB020C5FEA500C50F1000041EB61
S2144016C0045170BD0EF0004E4EEA113114EB5C042E
S2144016D0C2BFD4EB0C0541EA045170BD41F4801101
S2144016E04FF0000E013C90E645EA060E8DE60CEA09
S2144016F0135594EA0C0F08BF95EA0C0F3FF43BAF26
S21440170094EA0C0F0AD150EA01347FF434AF95EADC
S2144017100C0F7FF425AF104619462CE795EA0C0FC0
S21440172006D152EA03353FF4FDAE1046194622E78D
S21440173050EA410618BF52EA43067FF4C5AE50EA67
S21440174041047FF40DAF52EA43057FF4EBAE12E757
S2144017504A0011D212F5001211D20DD56FF47873EB
S214401760B3EB62520ED44FEAC12343F0004343EA40
S214401770505323FA02F070474FF00000704750EA8B
S214401780013002D14FF0FF3070474FF000007047F5
S21440179070B50F4E0F4D761BB61018BF002405D0FF
S2144017A0013455F8043B9847A642F9D10A4E0B4DF2
S2144017B0761B03F0D1F8B61018BF002406D00134CB
S2144017C055F8043B9847A642F9D170BD70BD00BF9E
S2144017D064494000644940006C4940006449400008
S2144017E00FB400B5074983B004AB086853F8042B20
S2144017F08168019300F07AF903B05DF804EB04B019
S214401800704700BF3004002070B4840746D0541E92
S214401810002A41D0CDB2034602E0621EE4B314462D
S21440182003F8015B9A07F8D1032C2ED9CDB245EACE
S21440183005250F2C45EA054519D903F11002264621
S214401840103E0F2E42F8105C42F80C5C42F8085CE2
S21440185042F8045C02F11002F2D8A4F1100222F021
S2144018600F0204F00F041032032C13440DD91E4609
S2144018702246043A032A46F8045BFAD8221F22F08E
S21440188003020432134404F003042CB1C9B21C44CE
S21440189003F8011BA342FBD170BC704714460346B5
S2144018A0C2E700BFF0B5044689B008460D4600F0D2
S2144018B0B3F8A368114F9A890495022100F1010EEE
S2144018C0012604AD029191040590CDF80CE00697F0
S2144018D00796019506D4596E42F4005221F4005101
S2144018E09A8159662046194601AA01F0A3FA0028B3
S2144018F014BF4FF0FF300A2009B0F0BD0449400045
S214401900024B01461868FFF7CDBF00BF30040020E9
S21440191000290CBF022200224FF4806300F000B87A
S2144019202DE9F0413A4C26680D46044690461F463F
S21440193016B1B36B002B3CD0B8F1020F2FD8002F56
S2144019402DDB2146304601F031F8A1890023636043
S214401950A3610B0627D421F0830189B2B8F1020FA8
S214401960A1812AD0002D36D0B8F1010F11D089B20E
S21440197001F00800274BF36380B22560256167615C
S21440198078B111F0030F18BF0027A7600020BDE80C
S214401990F08141F001017B42A181A361E7E74FF06E
S2144019A0FF30BDE8F0812169304601F06BF9A1892E
S2144019B0D1E7304601F08EF8BEE7002004F143033D
S2144019C041F0020100250122A181A5602360236128
S2144019D06261BDE8F081002F08BF4FF4806738464B
S2144019E001F058FC054628B1A18941F0800189B232
S2144019F0A181B9E74FF4806001F04CFC054618B968
S214401A00A1894FF0FF30D9E74FF48067ECE700BF7D
S214401A1030040020D929400020F0030110F00300D4
S214401A20C0F1000051F8043B00F1040C4FEACC0C26
S214401A306FF000021CBF22FA0CF213434FF0010C69
S214401A404CEA0C2C4CEA0C4CA3EB0C0222EA0302A8
S214401A5012EACC1204BF51F8043B0430F4D0C2F171
S214401A60000102EA0102B2FA82F2C2F11F0200EB62
S214401A70D20070474B6E2DE9F0479C040F469246C5
S214401A802BD59368126833B3804602F1080919E9EA
S214401A906000B60817D0043D002401E0A64210D0EE
S214401AA0404655F8041F3A4601F08CF8431C04F1B2
S214401AB00104F3D10023CAF80830CAF80430BDE860
S214401AC0F087DAF80830A3EB8603CAF8083009F145
S214401AD00809002BDBD10020ECE701F0ABF900232E
S214401AE0CAF80830CAF80430BDE8F0872DE9F04F50
S214401AF0ABB01C46009193460493019018B1836B9B
S214401B00002B00F0E380009B99898AB2900408D4A9
S214401B1018465B6E41F4005223F4005382814366BC
S214401B2092B2110740F1B280009B1B69002B00F077
S214401B30AD8002F01A020A2A00F0B48000230DF1AC
S214401B40680A09930F930E930293CDF834A0544637
S214401B509BF80030002B00F0A384252B00F0A084D7
S214401B605A4601E0252B03D012F8013F002BF9D14D
S214401B70CBEB0206154696B10E9B0F9AC4F800B002
S214401B8001333244072B66600F920E9379DD002AAC
S214401B9040F0AF84029B0E923344544602932B7817
S214401BA0002B00F0608300214FF000034FF0FF3C15
S214401BB08DF82F30681C6B7888460D46664600F1D7
S214401BC0010BA3F12002582A00F2AB82DFE812F0A4
S214401BD09B02A902A902A302A902A902A902A9027C
S214401BE0A902A90255026202A9020D016E02A902CB
S214401BF029012F012F012F012F012F012F012F0126
S214401C002F012F01A902A902A902A902A902A9022D
S214401C10A902A902A902A9023D01A902A902A90294
S214401C20A902A902A902A902A902A902A90274014D
S214401C30A902A902A902A902A9028B01A902A90226
S214401C40A301A902A902A902A902A902A902A902FE
S214401C50A902A902A902C701DA01A902A902A9029A
S214401C602301DA01A902A9024C02A9028A02130141
S214401C70F3010702A9020D02A9028100A902A902E6
S214401C8033020834029B3344029388E70198009954
S214401C9000F070FDA8B9009B9A8902F01A020A2A41
S214401CA07FF44CAF009BB3F90E30002BFFF646AFE7
S214401CB0019800995A46234600F020FD2BB0BDE817
S214401CC0F08F4FF0FF302BB0BDE8F08F00F002FFF2
S214401CD019E718F0200F0395B44600F00C81049BDA
S214401CE0073323F0070303F10802D3E900670492A1
S214401CF001234FF000028DF82F20E1460025BCF16D
S214401D00000FA8BF28F0800856EA070240F0C480BB
S214401D10BCF1000F00F08183012B00F0C580022B40
S214401D2000F087835146F20842EA4772F80806F008
S214401D30070307461646303356EA070201F8013DC8
S214401D40F1D118F0010F079140F0FC83C1EB0A096E
S214401D50E1454E46B8BF664605B1013618F0020367
S214401D60059318BF023618F08403069340F0FA81B4
S214401D70039B9D1B002D40F3F581102D40F38C8472
S214401D80DDF838E00F9AC64F204610236446714669
S214401D90844607E001F1020E0CF1080C0146103DA6
S214401DA0102D13DD481C103207280F92CCF8007017
S214401DB0CCF804300E90EDDD002A40F0C381103D93
S214401DC0102D11464FF0010ED446EBDC63467146AB
S214401DD0A4461C462A4407290F92276065600E9148
S214401DE000F346830834481CBFE1584648F00408D0
S214401DF09BF80030E3E618F020030395B44662D023
S214401E00049B073323F0070303F10802D3E9006776
S214401E10049200236DE748F040089BF8003058468F
S214401E20CDE648F080089BF800305846C7E6A3F158
S214401E30300200251BF8013B05EB850502EB450506
S214401E40A3F13002092AF5D9BBE648F0100818F08D
S214401E50200F0395B4468DF82F1000F09B80049910
S214401E60073121F00701D1E90023083104911646D5
S214401E701F46002A73F10003C0F2A683BCF1000F90
S214401E80A8BF28F0800856EA07029DF82F50E14682
S214401E904FF001033FF43CAF012B7FF440AF002FDF
S214401EA008BF0A2E80F034832AAB303603F8416DE3
S214401EB0C3EB0A0907934BE748F0100818F02003D5
S214401EC00395B4469CD118F0100240F0F78218F003
S214401ED0400300F0F382049913460A4604320E8803
S214401EE00492002705E748F0100818F0200F0395E5
S214401EF0B4467FF4F4AE049A18F0100F134640F040
S214401F00E48218F0400F00F0E08216880432002782
S214401F1001230492EDE6634A039518F0200FB44679
S214401F208DF82F10099200F09080049A073222F024
S214401F300702D2E9006702F10801049118F0010F88
S214401F4000F0908256EA070200F08C8230228DF82C
S214401F50313048F002088DF830200223C9E6049A52
S214401F60039513688DF840301346043301264FF02E
S214401F700001049310AB8DF82F10B14607934FF035
S214401F80000CEBE618F0200F0395B4468DF82F10A2
S214401F907FF465AF18F0100F40F0A28218F0400FA3
S214401FA000F09E820499B1F900600431F71732467A
S214401FB03B4604915DE70499039530230A468DF825
S214401FC03030782304328DF83130374B0993B4469D
S214401FD048F002080E6804920027022389E648F07B
S214401FE020089BF800305846E9E5049A03951368A4
S214401FF007934FF00001B4468DF82F10161D002BA6
S21440200000F05083BCF1000FC0F22A83079DCDF844
S21440201010C062462846002101F0D6FBDDF810C00D
S214402020002800F05083C5EB000904969DF82F5019
S2144020304FF0000C8CE61C4A039518F0200FB4466F
S21440204009928DF82F107FF470AF049918F0100F96
S2144020500A4640F0408218F0400F00F03C820432BE
S2144020600E880492002769E79BF800306C2B00F03E
S214402070EA8248F010085846A1E5049A15681346C7
S214402080002D03F10403C0F2E68204939BF800306F
S214402090584694E59BF8003058462B218FE500BF04
S2144020A048494000184940002C4940009BF8003001
S2144020B02A2B0BF1010000F00F83A3F13002092A0E
S2144020C083464FF000063FF67CAD1BF8013B06EB1F
S2144020D0860602EB4606A3F13002092AF5D946EAFF
S2144020E0E6766EE518F0200F8DF82F1000F083820C
S2144020F0049A02991368CF17084604323946049268
S214402100C3E9000124E558469BF8003000297FF4D7
S21440211056AD202153E548F0010858469BF800305C
S2144021204DE503958DF82F10002B00F09C808DF820
S21440213040304FF0000301268DF82F3010ABB146EB
S21440214007931CE70198009908930DAAFFF792FCA5
S214402150002840F08F800E990F9A089B01F1010EDF
S214402160D4461CE60E990F9A481C9DF82F306BB14A
S21440217001320DF12F03012107280F920E902360A4
S214402180616000F33481014608340130059B63B139
S21440219002320CA9022307280F920E9084E80A0008
S2144021A000F33481014608340130069B802B00F052
S2144021B0D480C9EB0C07002F2BDD102FAA4D1FDD56
S2144021C0A6461023019C07E001F1020C0EF1080E12
S2144021D00146103F102F11DD481C103207280F9281
S2144021E0CEF80050CEF804300E90EDDD6ABB103FBE
S2144021F0102F4FF0010C1146D646EDDC7446604673
S2144022003A4407280F9284E8A0000E903BDC08343E
S214402210013002EB0903079A0F93072884E804026B
S2144022200E903DDD002B40F03E8118F0040F0E93DB
S21440223040F02F81029B039A9642ACBF9B199B1895
S214402240029300230E93544682E420460099059359
S2144022500DAAFFF70FFC68B90E990F9A059B01F17E
S214402260010CD646B5E70F9B23B1019800990DAAFD
S214402270FFF700FC009B9B895B063FF522AD02986A
S2144022802BB0BDE8F08F002A40F0918101220799DB
S214402290CDF86C904B46CDF83C901A910E92544631
S2144022A004F1080218F0040F39D003998D1B002D55
S2144022B035DD102D40F302820E986C4FDDF8048019
S2144022C0DDF80090102406E000F1020E08320846C1
S2144022D0103D102D10DD411C103307290F93176059
S2144022E054600E91F0DD002B2AD1103D102D4FF09A
S2144022F0010E18465246EEDC2B44BEF1070F0F93F4
S21440230017605560CDF838E009DD002B92D0019873
S21440231000990DAAFFF7AEFB0028ABD10F9B029A9F
S21440232003998E42ACBF921952180292002B88D065
S214402330019800990DAAFFF79DFB002881D099E7E8
S214402340404649460DAAFFF795FB002892D10E98C5
S2144023500F9B00F1010E5246BAE7039B9F1B002FCE
S2144023607FF727AF102F404D40F3B481204610230F
S2144023706446844607E001F1020E0CF1080C014663
S214402380103F102F11DD481C103207280F92CCF852
S2144023900050CCF804300E90EDDDC2B9103F102F3F
S2144023A04FF0010E1146D446EDDC6346A4461C466B
S2144023B03A44BEF1070F0F9284E8A000CDF838E00B
S2144023C000F3EF8008340EF101007146F1E6019803
S2144023D0009905930DAAFFF74DFB00287FF44AAFFE
S2144023E00E990F9A059B01F1010ED446C8E7002AC4
S2144023F040F0C680059B002B00F086800CAA022386
S2144024001A9208461B931A465446CBE6002A40F0DA
S214402410A680012011465446C7E603BB18F0010FBC
S2144024201DD02AAB302203F8412DC3EB0A0907938F
S2144024308EE40998D146330906F00F0143EA077344
S2144024403A091E461746435C09F8013D56EA07031B
S214402450F1D14B46CDF81C90C3EB0A0978E4CDF891
S2144024601CA075E4022344E4084940004849400063
S214402470002A40F0D7809DF82F30002B00F0AE8029
S21440248001230DF12F0118461B931A461A91544604
S21440249079E6039A951B002D52463FF70AAFC9E6E8
S2144024A05D46FFF77CBB019800990DAAFFF7E2FA5C
S2144024B000287FF4DFAE0F9B5246F3E604990A46A7
S2144024C004320E680492002713E404321E68049215
S2144024D0012300270DE416680432049200272DE5F8
S2144024E0049A166813460433F717049332463B465D
S2144024F0BFE4019800990DAAFFF7BCFA00287FF4C4
S214402500B9AE5446FFF7BEBB0846544611464CE6A5
S214402510D146CDF814C0304639460A22002301F091
S2144025207DFE30323046394609F8012D00230A2216
S21440253001F074FE06460F4656EA0703EBD1DDF877
S21440254014C086E7302B079B86D0013B1A4607937C
S2144025503023C2EB0A0901F8013CFFF7F9BB0198AA
S2144025600099CDF814C00DAAFFF784FA00287FF42E
S21440257081AE0E990F9ADDF814C0481C544614E6F6
S21440258001980099CDF820C00DAAFFF773FA0028ED
S2144025907FF470AE0E990F9ADDF820C0481C544662
S2144025A0F4E5002A67D101201146544601E6019819
S2144025B000990DAAFFF75EFA00287FF45BAE0E98EE
S2144025C00F9A0130544624E62D25764267EB47079E
S2144025D08DF82F50E1460123FFF791BB059B11462E
S2144025E001205446002B3FF4E4AD0CAA02238AE8AF
S2144025F00C001A46D6E518F0100F0BD118F0400F15
S21440260008D0049A136804320492BDF808201A8051
S214402610FFF79EBA049A136804320492029A1A602C
S214402620FFF796BA01980099CDF820C00DAAFFF79B
S21440263021FA00287FF41EAE0E990F9ADDF820C0CE
S214402640481C544691E548F020080BF101009BF8E1
S2144026500130FFF7B4BA6D4204935846FFF7C6BB45
S21440266007980496FFF7D8F99DF82F5081464FF00B
S214402670000CFFF76DBB01980099CDF814C00DAA69
S214402680FFF7F8F900287FF4F5AD0E990F9ADDF8BC
S21440269014C0481C54468CE50E990F9A154F0131CC
S2144026A0FFF798BBBCF1060F28BF4FF0060C124B45
S2144026B00496E1462CEAEC76079360E40E990D4FBB
S2144026C001F1010E18E6E1469DF82F500496844627
S2144026D0FFF73EBB86466BE6049A9BF801301668C9
S2144026E00432002E0492BFF66AAA4FF0FF36FFF778
S2144026F066BA00BF48494000404940002DE9F042D4
S2144027000C46ADF58D6DB1F80CE0E769496EB4F84E
S2144027100E9019911AAD4FF480662EF0020E4FF0CF
S214402720000C07976946676A0095049502960596D9
S214402730ADF80CE0ADF80E900997CDF818C00646F7
S214402740FFF7D4F9051E07DB3046694600F02EF940
S214402750002818BF4FF0FF35BDF80C305B0603D598
S214402760A38943F04003A38128460DF58D6DBDE84F
S214402770F08200BF38B52F4B1B6805460C4613B198
S2144027809A6B002A36D0A28993B218070CD52069D6
S214402790A8B113F001021ED0636900225B42A36118
S2144027A0A260F0B1002038BDD9063BD5580725D4E5
S2144027B0206942F00803A3819BB20028E9D103F4C4
S2144027C02072B2F5007FE4D02846214600F0F2FCA5
S2144027D0A3892069DDE7990758BF6269A26000288F
S2144027E0E0D1A3891A06DED543F04003A3814FF01B
S2144027F0FF3038BD184600F06DF9C4E7216B49B18B
S21440280004F14003994203D0284600F03BFAA289DF
S2144028100023236322F0240200232069636092B2DF
S2144028202060C6E742F0400209232B604FF0FF309D
S214402830A28138BD30040020024B13B1024800F09C
S21440284005B8704700000000E92A40000146002015
S2144028500246034601F0EEBB8B899AB22DE9F04161
S2144028600D46110780463CD46A6843F40063002A4C
S214402870AB8165DDAE6A002E4BD09BB203F480522E
S214402880002192B2D8F80040C8F80010002A5BD069
S2144028902A6D5F0705D569682B6B521A0BB1EB6B37
S2144028A0D21A4046E9690023B047461C56D0AB8949
S2144028B02A692A6023F400639BB200226A60DA0425
S2144028C0AB813BD4296BC8F8004011B305F14003F7
S2144028D0994202D0404600F0D5F900202863BDE872
S2144028E0F0812E69AEB12C682E6091070CBF6B69E3
S2144028F00023A41BAB600AE0324623466F6AE969B0
S2144029004046B8470028A4EB0004064404DD002CEB
S214402910F2DC0020BDE8F081AB8943F04003AB8198
S2144029204FF0FF30BDE8F081AB892A69696023F437
S21440293000639BB2AB81DB042A60C3D52865C1E740
S214402940EA6B002A96DCE4E701234046E969B04793
S214402950431C024619D0AB89AE6A9AE7D8F80010F5
S2144029600029E1D01D2907D0162905D0AB8943F0B0
S2144029704003AB81BDE8F081AB892A692A6023F425
S21440298000630022AB816A609CE7D8F80030002BD9
S214402990E1D01D2B07D0162B05D0AB8943F0400362
S2144029A0AB81BDE8F081C8F80040B2E710B50446F8
S2144029B082B008B1836B53B1B1F90C0008B902B0CC
S2144029C010BD204602B0BDE81040FFF745BF01915C
S2144029D000F080F80199EFE7014900F0B7BB00BF6F
S2144029E0FD4040002DE9F04F354B4568C363002459
S2144029F0074600F53B7204230321C0F8E412C0F8F2
S214402A00E822C0F8E04283B02C606C60AC606C6634
S214402A10EC812C616C61AC61AB81214605F15C00B8
S214402A200822FEF7F1FEBE68DFF898B0DFF898A0FF
S214402A30DFF89890DFF89880C5F820B00123092287
S214402A40C5F824A0C5F82890C5F82C80ED6121462D
S214402A50F381B28106F15C0034607460B4607466E1
S214402A6034617461B46108220193FEF7CDFEFD68BF
S214402A70F66112200222C6F820B0C6F824A0C6F896
S214402A802890C6F82C802146A881EA812C606C608C
S214402A90AC606C662C616C61AC6105F15C00082230
S214402AA0FEF7B2FE019BED61C5F820B0C5F824A044
S214402AB0C5F82890C5F82C80BB6303B0BDE8F08FFE
S214402AC0D9294000713E4000953E4000CD3E400032
S214402AD0ED3E4000836B03B17047FFF783BF00BFF6
S214402AE0704700BF704700BF38B5084B084DED1A19
S214402AF0AC1018BFED1805D0013C55F8043D98477A
S214402B00002CF9D1BDE8384001F030BF784940008C
S214402B107C4940002DE9F04182B007460E461446F7
S214402B2000F042FB012841D0384601A9324604F164
S214402B305C0301F033FAB0F1FF3F80462FD0002807
S214402B403CD09DF80410002509E0236819702368DE
S214402B50013323600135A84530D901AB595DA368E0
S214402B60013B002BA360F0DAA269934207DB23689F
S214402B701970236819780A2903F10103E9D1384608
S214402B80224601F0B7F9A0F1FF30B0FA80F04009D4
S214402B900028DFD04FF0FF3002B0BDE8F081A389B7
S214402BA043F04003A38102B0BDE8F081731EFE2BC4
S214402BB0BAD8F1B280468DF80410C4E7304602B069
S214402BC0BDE8F081938913F4005F0BD110B4546EC6
S214402BD043F4005344F40054546693815DF8044B28
S214402BE0FFF798BFFFF796BFF8B5234F0C4606464B
S214402BF000F032FFBB685D6825F00305291B01F62F
S214402C00EF7121F47F6121F00F01A1F58054B4F5F6
S214402C10805F07DB3046002101F018F9BB682B4483
S214402C20984204D0304600F019FF0020F8BD3046E8
S214402C30614201F00BF901300DD0104BBA681968AB
S214402C402D1B45F001053046091B5560196000F004
S214402C5005FF0120F8BD3046002101F0F7F8BA68BC
S214402C60831A0F2BDEDD064C0449246843F001032B
S214402C70001B53600860D5E7580400200C0900206C
S214402C806408002000294ED02DE9F0410C468046CD
S214402C9000F0E2FE54F8047C624927F00102A4F1F9
S214402CA00805AB188E6858689E4220F003005AD03C
S214402CB0FE0758600BD454F8087CED1B01F1080E53
S214402CC0AC6874453A4467D0EF68E760BC601C184F
S214402CD06468E4070CD4544F9C68BC4202447CD0E1
S214402CE0D868E06042F0010384606B60AA5003E05D
S214402CF042F001036B60AA50B2F5007F14D2D208AE
S214402D0001EBC20348689F68AF609210012404FA42
S214402D1002F21043EB6048609D60FD604046BDE8AF
S214402D20F04100F09BBE7047530A042B47D89309E6
S214402D3003F13804600001EB80003A49836883421F
S214402D4043D0596821F00301914202D99B689842CA
S214402D50F7D1DA68EA60AB6040469560DD60BDE872
S214402D60F04100F07BBEFF07024407D454F8083C0D
S214402D70ED1A1A44A868EB68C36098602B4B1B6832
S214402D8042F001009A4268608D60C7D3284B4046A7
S214402D901968FFF729FFC1E719184968C90709D418
S214402DA0D9689B68024442F00100D9608B60686035
S214402DB0AA50B3E742F001036B60AA50AEE7142B6B
S214402DC014D803F15B046000B5E74A68A4100120FC
S214402DD0A04002434A601A46BCE742F001034D61F8
S214402DE00D61EC60AC606B60AA5097E7542B04D83A
S214402DF0130B03F16E0460009DE7B3F5AA7F04D879
S214402E00D30B03F17704600095E740F254508342B9
S214402E1004D8930C03F17C0460008CE7FC207E24ED
S214402E2089E700BF580400206004002060080020A6
S214402E30080900209368002B7AD02DE9F04FB1F8AE
S214402E400CE01EF0080F83B00C468146164626D08E
S214402E500B6923B30EF002081FFA88F0356870B38A
S214402E604FF0000ADFF8E0B2D046D8454346524617
S214402E7028BF5B464846B8F1000F53D0E169676A01
S214402E80B847002873DDB3681B1A8244C0EB0808B5
S214402E90B360002BE9D1002003B0BDE8F08F484670
S214402EA02146FFF767FC002840F04581B4F80CE067
S214402EB035680EF002081FFA88F00028D0D11EF0C0
S214402EC0010B5DD1D846B8F1000F25D01EF4007F27
S214402ED0A7682FD0B845BA46C0F0A9801EF4906FB8
S214402EE040F0B68020685246594600F051FDA06832
S214402EF02268C01B02EB0A03A06023604046B3680A
S214402F001B1A8344C0EB0808B360002BC3D0B4F848
S214402F100CE0B8F1000FD9D1D5F800B0D5F8048050
S214402F200835D0E7D5F800A0D5F8048008359CE7EA
S214402F300020704720682369984203D8626990450C
S214402F4080F0B980474528BF47463A46594600F084
S214402F501FFDA3682268DB1B3A44A3602260002B57
S214402F604AD148462146FFF721FD002844D0A38990
S214402F7043F040034FF0FF30A38103B0BDE8F08F2D
S214402F808046009083468246BAF1000F2CD0009BC4
S214402F90002B50D020682169D4F808E06269D045FB
S214402FA0434628BF534688421F4604D90EEB020CC0
S214402FB0634500F39280934220DB1346676AE169DB
S214402FC048465A46B847071ED1DDB8EB070825D015
S214402FD0B368DB1BBB44C7EB0A0AB360002B3FF465
S214402FE05AAFBAF1000FD2D10023D5F800B0D5F8C9
S214402FF004A000930835C7E7384680E71A46594686
S214403000019300F0C5FCA2682168019BB8EB070855
S214403010A2EB03020B44A2602360D9D14846214666
S214403020FFF7C4FC0028A2D1CDF80080D0E7206886
S2144030304746C24657E758460A21524600F0C4FB68
S214403040002873D001300123CBEB00080093A1E7A2
S21440305067692169236807EB47075B1A07EBD77751
S214403060581C7F10404487423A463CBF07463A4683
S2144030701EF4806F009346D01146484600F012F981
S214403080009B8246002859D01A462169009300F0DA
S214403090E5FBA289009B22F4906242F08002A28166
S2144030A00AEB0300FB1AC4F810A067612060A36017
S2144030B04746C24617E76FF00043434528BF43469E
S2144030C0676A93FBF2F3484603FB02F3E1695A460C
S2144030D0B84700283FF713AF49E762465946CDF850
S2144030E004C000F055FC2368DDF804C06344236048
S2144030F048462146FFF75AFCDDF804C000287FF416
S21440310036AF674661E7484600F0AAFC009B824619
S2144031100028C5D148462169FFF7B4FDA3890C2293
S21440312023F080039BB2C9F8002021E701230AF16F
S214403130010800932EE74FF0FF30ADE60C23C9F8A8
S2144031400030A38914E700BF00FCFF7F2DE9F84359
S21440315010F538771FD0884606464FF000097D6840
S214403160BC68013D11D4A389012B05F1FF3508D970
S214403170B4F90E3001332146304602D0C04749EA02
S21440318000096B1C04F16804EDD13F68002FE6D1BE
S2144031904846BDE8F883B9464846BDE8F88300BFD0
S2144031A00048704734040020014B1868704700BF41
S2144031B0540400208B899AB212F0020F3CD1F0B52D
S2144031C00C46B1F90E10002991B0054619DB01AA4C
S2144031D000F0D6FF002812DB029B03F47043B3F5E1
S2144031E0004FA3F50057B7FA87F74FEA57172AD08C
S2144031F0A38943F40063A3814FF480660BE0A38960
S2144032009AB212F0800F43F40063A3810CBF4FF4D0
S2144032108066402600272846314600F043F8A389BA
S21440322040B31A4AEA6343F08003A38120602061DA
S21440323066619FB911B0F0BD01F1430301220B60F6
S2144032400B614A617047124BA26A9A42D0D1A38959
S2144032504FF480663343A381E664DCE72846B4F93E
S2144032600E1000F0A1FF0028E4D0A38943F001032C
S214403270A381DFE79A05DDD404F1430243F002035D
S2144032800121A381226022616161D3E7D9294000F0
S214403290CD3E4000024B0146186800F003B800BF20
S2144032A0300400202DE9F04F01F10B05162D83B0B8
S2144032B0064627D935F0070500F1B680A94200F248
S2144032C0B38000F0C9FBB5F5FC7F22D2C24FE808B8
S2144032D007EBC003DC689C4200F0C8816368E16885
S2144032E0A56823F00303234430465A68E96042F059
S2144032F001028D605A6000F0B1FB0834204603B0EE
S214403300BDE8F08F102900F28F8000F0A5FB102555
S214403310DCE7680A00F08F80042800F25481A80990
S21440332038304100AC4F07EB8101CC68A14206D152
S2144033300CE0002A80F28280E468A14206D06368EE
S21440334023F003035A1B0F2AF3DD01380130A2494C
S2144033503C6901F1080E744500F07D81636823F0F6
S21440336003035A1B0F2A00F36381002AC1F814E0B6
S214403370C1F810E073DAB3F5007F80F03981DB08DE
S21440338001EBC3084FEAA30C4A68D8F80890C4F883
S2144033900890012303FA0CF31343C4F80C804B60E7
S2144033A0C8F80840C9F80C408210012494409C425A
S2144033B062D8234206D120F003006400234200F185
S2144033C00400FAD007EBC008C4468146DCF80C304F
S2144033D09C4507D141E1002980F25181DB689C453C
S2144033E000F03B815A6822F00302511B0F29F2DDA0
S2144033F01C46D3F80CC054F8088F5A1945F00109FA
S21440340041F00105C3F804903046C8F80CC0CCF82B
S21440341008807A613A61C2F80CE0C2F808E055606C
S214403420515000F01BFB69E700240C232046336014
S21440343003B0BDE8F08F7E213F2073E72344E16868
S2144034405A68A56842F00102E96030468D605A60CD
S21440345000F004FB0834204603B0BDE8F08F234458
S21440346030465A6842F001025A6000F0F7FA0834D3
S214403470204603B0BDE8F08FBC68636823F00308BD
S214403480454504D8C5EB08030F2B00F38C80534BFF
S214403490DFF858A11A68DAF8003001332A4404EB02
S2144034A0080B00F0508102F580520F3222F47F6202
S2144034B022F00F0211463046019200F0C7FCB0F1F0
S2144034C0FF3F8146019A00F04781834500F2EE8037
S2144034D0434B1968CB451144196000F04281DAF835
S2144034E00000DFF808E101301BBFCBEB090B594465
S2144034F0CEF80090196019F0070100F00781C1F17D
S2144035000800C1F58051814408314A44C2F30B0299
S214403510C2EB010A51463046019300F097FC431C2B
S214403520019B00F02C81C9EB0002524442F001029C
S2144035301968C7F808905144BC42C9F8042019607D
S214403540DFF89CA016D0B8F10F0F40F2EE8062680C
S214403550A8F10C0323F00703E01802F001024FF035
S214403560050E1A430F2B6260C0F804E0C0F808E06E
S21440357000F209811B4BBC681A68914288BF1960EB
S214403580194B1A689142626888BF196022F003029C
S2144035909542A2EB050301D80F2B04DC304600F021
S2144035A05DFA0024AAE6621943F0010345F00105DE
S2144035B065603046BA60536000F050FA08342046E2
S2144035C003B0BDE8F08F142868D9542800F29780DD
S2144035D0280B6E304100A5E658040020080900205C
S2144035E00C0900200409002000090020640800207F
S2144035F05A0A042A55D9142A00F2A7805B324FEAA9
S214403600420C07EB8C0CDFF8BC81DCF808106145F7
S2144036107FD04A6822F00302934202D289688C45E2
S214403620F7D1CA687B68E260A1609460CC60BBE674
S214403630631942F0010745F00105656030464B616D
S2144036400B61C3F80CE0C3F808E05F609A5008349A
S21440365000F004FA52E64B68A6E609F1010919F0B3
S214403660030F0CF1080C7FF4B1AE2CE004F1080314
S2144036706469A34208BF02303FF469AE2EE61A449E
S2144036801C465168DB6854F8085F41F00101516000
S2144036903046EB609D6000F0E1F92FE65B3041007C
S2144036A040E69A0938324FEA420CAAE7BC42454BFC
S2144036B03FF40EAF9C68626822F0030268E7D8F8D1
S2144036C0008098457CD110F0030FA8F1080300F164
S2144036D0FF30F4D17B6823EA04037B6064009C429D
S2144036E03FF6CAAE002C3FF4C7AE234248467FF4AE
S2144036F069AE6400234200F10400FAD062E6B0F5F9
S214403700AA7F18D8E80B773041000BE64FF480517B
S214403710FBE6D8F8043092104FF0010C0CFA02F297
S2144037201343C8F804300A467DE70123C9F804303D
S2144037304C4600222CE740F2545398421CD8A80C22
S2144037407C304100EEE51032B4E6542A23D81A0BFA
S2144037506E324FEA420C54E7BC68626822F00302BD
S21440376016E7CBF30B0000287FF4B9AE4244BB68A3
S21440377042F001025A60FDE6FC217E20D2E501229D
S2144037804FF0000AD4E604F108013046FFF77AFA13
S214403790DAF80010EEE6B2F5AA7F04D8DA0B7732F4
S2144037A04FEA420C2DE740F254518A4204D89A0C14
S2144037B07C324FEA420C24E74FF0FC0C7E2220E796
S2144037C07B688BE758040020830770B4C9B240D0AA
S2144037D0541E002A3FD003788B4218BF431C06D1A4
S2144037E01DE0F4B102788A4204F1FF3417D013F09A
S2144037F0030F184603F10103F3D1032C14D884B108
S21440380003788B420BD00519431C02E002788A42AB
S21440381005D0AB42184603F10103F7D1002070BC37
S2144038207047204670BC704741EA0126024646EA89
S21440383006461046043203687340A3F1013525EA74
S214403840030313F0803FDAD1043C032C1046F0D833
S214403850D5E71446D1E71046E1E700BF844641EA83
S214403860000313F003036DD1403A41D351F8043BB3
S21440387040F8043B51F8043B40F8043B51F8043B05
S21440388040F8043B51F8043B40F8043B51F8043BF5
S21440389040F8043B51F8043B40F8043B51F8043BE5
S2144038A040F8043B51F8043B40F8043B51F8043BD5
S2144038B040F8043B51F8043B40F8043B51F8043BC5
S2144038C040F8043B51F8043B40F8043B51F8043BB5
S2144038D040F8043B51F8043B40F8043B51F8043BA5
S2144038E040F8043B51F8043B40F8043B403ABDD214
S2144038F0303211D351F8043B40F8043B51F8043BB6
S21440390040F8043B51F8043B40F8043B51F8043B74
S21440391040F8043B103AEDD20C3205D351F8043B44
S21440392040F8043B043AF9D2043208D0D2071CBF10
S21440393011F8013B00F8013B01D30B880380604639
S214403940704700BF082A13D38B078DD010F00303AF
S2144039508AD0C3F10403D21ADB071CBF11F8013B1F
S21440396000F8013B80D331F8023B20F8023B7BE76E
S214403970043AD9D3013A11F8013B00F8013BF9D299
S2144039800B7803704B7843708B7883706046704733
S2144039908842F0B50DD98B1898420AD28118002A71
S2144039A054D09A1A13F8014D01F8014D9342F9D1BB
S2144039B0F0BD0F2A48D940EA01039B0747D100F1E2
S2144039C0100401F11003154653F8106C44F8106CBF
S2144039D053F80C6C44F80C6C53F8086C44F8086CBC
S2144039E0103D53F8046C44F8046C0F2D03F110039B
S2144039F004F11004E8D8A2F1100323F00F0302F0FC
S214403A000F0E1033BEF1030F1944034421D91E1F75
S214403A100D467446043C55F8047B46F8047F032C58
S214403A20F8D8AEF1040424F00304043423442144BB
S214403A3002F0030252B1013B0A4411F8014B03F86D
S214403A40014F9142F9D1F0BD0346F3E7F0BD03467E
S214403A50F1E77246EEE700BF704700BF704700BF11
S214403A602DE9F04F174683B00E46002900F0E78058
S214403A70814607F10B05FFF7EFFF56F8043C162D7D
S214403A8023F00304A6F108084CD810221546AF428E
S214403A904DD8944280F28480DFF8ACB3DBF808005F
S214403AA008EB0401884200F0D680486820F0010EFA
S214403AB08E44DEF804E01EF0010F3FD120F00300F4
S214403AC02044904280F2C180DB0700F18F8056F898
S214403AD0083CC3EB080ADAF8043023F0030300EB93
S214403AE0030E964534DBCB688A685746D3609A60A7
S214403AF057F8081FDAF80C30CB60221F242A99604A
S214403B0000F23681132A40F2FD803368CAF8083046
S214403B107368CAF80C301B2A00F2408108360AF156
S214403B201003F0E025F00705002D2A46AFDA0C23F7
S214403B300020C9F8003003B0BDE8F08FD90755D44F
S214403B4056F8083CC3EB080ADAF8043023F00303BF
S214403B50234493424ADB5746DAF80C1057F8080FCE
S214403B60221F242AC160886000F20E81132A40F288
S214403B7009813168CAF808107168CAF80C101B2A07
S214403B8000F2218108360AF110023168116071682E
S214403B905160B16891601C46DAF804303E46D04623
S214403BA0621B0F2A03F001030ED823434444C8F88F
S214403BB00430636843F0010363604846FFF74EFFF6
S214403BC0304603B0BDE8F08F08EB05011D4342F0D8
S214403BD001030A44C8F804504B60536843F001039D
S214403BE0083153604846FFF74DF8E6E73946484601
S214403BF0FFF758FB0746D8B156F8043C23F00102BD
S214403C004244A0F10801914200F0AC80221F242AD1
S214403C1000F29980132A6AD8034632461168196022
S214403C205168596092689A6031464846FFF72AF8CC
S214403C304846FFF713FF384603B0BDE8F08F1146FD
S214403C4003B0BDE8F04FFFF72DBBCA68896804464D
S214403C50CA609160A4E7416821F00301214405F160
S214403C60100081425BDADB07C0D456F8083CC3EB51
S214403C70080ADAF8043023F0030301EB030C60452E
S214403C803FF766AF5746DAF80C3057F8081F221F42
S214403C90242ACB60996000F2B880132A40F2A980AB
S214403CA03368CAF808307368CAF80C301B2A00F22A
S214403CB0B58008360AF1100332681A6072685A6096
S214403CC0B2689A600AEB0502C5EB0C0343F00103A9
S214403CD0CBF808205360DAF8043003F001031D43A4
S214403CE04846CAF80450FFF7B9FE384669E73368D5
S214403CF00360736843601B2A29D800F1080306F165
S214403D0008028BE73B4632681A6072685A60B268AF
S214403D109A603E467446DAF80430D04640E708EBF0
S214403D2005024B1B43F00103CBF80820536056F8BE
S214403D30043C03F001031D43484646F8045CFFF785
S214403D408DFE30463DE73146FFF722FE6CE7B3680E
S214403D508360F368C360242A2CD000F1100306F178
S214403D6010025BE750F8042C22F00302144417E7D5
S214403D703146384674463E46FFF70AFED046DAF8E5
S214403D8004300DE73A4600E7314638461C463E4684
S214403D90FFF7FEFDD046DAF8043001E7B368CAF80C
S214403DA01030F368CAF81430242A18D010360AF1B6
S214403DB01803A8E7336903617369436106F1180283
S214403DC000F118032AE7B168CAF81010F168CAF87B
S214403DD01410242A0FD010360AF11802D5E633699B
S214403DE0CAF818307369CAF81C3018360AF120032E
S214403DF089E73B4660E73269CAF818207269CAF814
S214403E001C2018360AF12002BFE631463846CDF867
S214403E1004C0FFF7BDFDDDF804C053E7B368CAF839
S214403E201030F368CAF81430242A03D010360AF14A
S214403E30180341E73369CAF818307369CAF81C306A
S214403E4018360AF1200337E75804002038B5074CE7
S214403E500023054608462360FCF720FE431C00D09E
S214403E6038BD2368002BFBD02B6038BD44090020AA
S214403E7010B50C46B1F90E1000F0BCF9002803DB73
S214403E80236D0344236510BDA38923F48053A38187
S214403E9010BD00BF2DE9F04116468A891D46D30560
S214403EA00C46074606D50022B1F90E10022300F054
S214403EB08DF9A289B4F90E1022F48052A2813846B8
S214403EC032462B46BDE8F04100F0A0B810B50C468F
S214403ED0B1F90E1000F07AF9A389421C0EBF23F404
S214403EE0805343F480532065A38110BDB1F90E1072
S214403EF000F0F2B870B50D461446064610B1836B16
S214403F00002B48D0A289A369A36091B2080738D590
S214403F102369002B35D08904EDB215D52268616936
S214403F20D31A8B421CDA0133A168501C0139A160B8
S214403F302060157062699A421AD0A389DB0701D5C2
S214403F400A2D15D0284670BD616E42F4005221F409
S214403F500051A281226861666169D31A8B42E2DB16
S214403F6030462146FEF722FD40B922680123DBE7B2
S214403F7030462146FEF71AFD0028E3D04FF0FF30CA
S214403F8070BD30462146FEF7F5FB0028F6D1A289E3
S214403F90236991B2BFE7FEF79DFDB3E72DE9F041F7
S214403FA0054686B01E460C46A1B1104B1746D3F8C0
S214403FB00080FFF7F5F80096034621463A46284625
S214403FC0C047431C03D100228A2332602B6006B0D0
S214403FD0BDE8F081054B1F68FFF7E2F80096034600
S214403FE02246284603A9B847EBE700BF68080020EA
S214403FF021B1FF2A04D80A7001207047084670474E
S2144040008A2303604FF0FF30704700BF70B5084CFE
S21440401006460025084611461A462560FCF7D4F8A1
S214404020431C00D070BD2368002BFBD0336070BDAE
S214404030440900202DE9F047254C2568D5F848412D
S2144040400646884692469946CCB360681F2818DCD8
S214404050431C7EB104EB80050121C5F888A0D4F846
S214404060887101FA00F21743022EC4F88871C5F829
S21440407008911ED00230636044F820800020BDE8DE
S214404080F087144B03B34FF4C870FFF703F90446A8
S214404090D0B1D5F84831002780E88800C5F84841B7
S2144040A038460123C4F88871C4F88C71002EE1D0DC
S2144040B0D0E7D4F88C110A43C4F88C21DAE705F52A
S2144040C0A674C5F84841C0E74FF0FF30BDE8F0871A
S2144040D0004940009532400038B5074C002305465D
S2144040E008462360FCF7F4FC431C00D038BD236828
S2144040F0002BFBD02B6038BD4409002000293DD062
S21440410070B505460C4608B1836B7BB3B4F90C30EA
S2144041100BB9002070BD28462146FEF79DFBE36A9A
S214404120064633B12846E16998470028B8BF4FF0A5
S214404130FF36A3891B061CD4216B41B104F1400312
S214404140994202D02846FEF79DFD00232363616C0A
S21440415021B12846FEF796FD00236364FEF7C0FCB7
S2144041600023A381FEF7BEFC304670BDFEF7B2FCCE
S214404170CCE728462169FEF785FDDDE7002070473D
S21440418038B5084C00230546084611462360FCF720
S214404190A3FC431C00D038BD2368002BFBD02B600B
S2144041A038BD00BF4409002038B5074C00230546FB
S2144041B008462360FCF796FC431C00D038BD2368B5
S2144041C0002BFBD02B6038BD4409002070B5084C4E
S2144041D006460025084611461A462560FCF784FC2C
S2144041E0431C00D070BD2368002BFBD0336070BDED
S2144041F04409002070B5084C06460025084611467E
S2144042001A462560FBF7C2FF431C00D070BD2368EA
S214404210002BFBD0336070BD4409002053B94AB927
S214404220002908BF00281CBF4FF0FF314FF0FF3079
S21440423000F03CB882B0EC462DE9005000F01EF885
S214404240DDF804E002B00CBC704700BF2DE9F04139
S214404250069C154606460F46984600F029F805FB8C
S21440426001F300FB0838A5FB0023B21A434467EB72
S2144042700303C4E90023BDE8F08100BF2DE9F04107
S214404280069C904606460F461D4600F05FF900FB2A
S21440429005F5A0FB082308FB0155B21A2B4467EB33
S2144042A00303C4E90023BDE8F08100BF704700BFA8
S2144042B000292DE9F043C0F2A6800026002BC0F26C
S2144042C09C80884694469E46154604460F46002BDC
S2144042D03DD18A4259D9B2FA82F33BB1C3F12002AA
S2144042E09F4020FA02F29D4017439C40290C220C26
S2144042F0B7FBF1FEA8B201FB1E7742EA074700FB78
S2144043000EF3BB420AD97F190EF1FF3280F00581C9
S214404310BB4240F20281AEF1020E2F44FF1AA4B215
S214404320B7FBF1F301FB137744EA074700FB03F0C2
S214404330B84208D97F1903F1FF3280F0F080B842C6
S21440434040F2ED80023B43EA0E43002203E08B42FC
S2144043500FD900221346341C18BF012460424FF088
S214404360000565EB45015840514000196941BDE8DC
S214404370F083B3FA83F2002A40F086808B4202D361
S214404380844500F2DB800123E5E712B90123B3FB45
S214404390F2F5B5FA85F000283BD1781B4FEA154E6A
S2144043A01FFA85FC0122B0FBFEF8210C0EFB180715
S2144043B041EA07470CFB08F3BB4207D97F1908F1CF
S2144043C0FF3102D2BB4200F2BD808846FF1AA4B23B
S2144043D0B7FBFEF30EFB137744EA07470CFB03FCE0
S2144043E0BC4507D97F1903F1FF3102D2BC4500F224
S2144043F0A7800B4643EA0843ADE752426FEA0606FB
S21440440063EB43035DE7404261EB41014FF0FF360B
S21440441054E7C0F1200224FA02F107FA00F385407F
S2144044204FEA154ED7401943B7FBFEF20B0C0EFB76
S21440443012771FFA85FC43EA07430CFB02F79F42BC
S21440444004FA00F407D95B1902F1FF3074D29F4298
S21440445072D9023A2B44DF1B89B2B7FBFEF80EFB3B
S214404460187341EA03430CFB08F79F4208D95B19CF
S21440447008F1FF315CD29F425AD9A8F102082B447A
S214404480D81B48EA02428EE7C2F120032CFA03F119
S2144044900EFA02FE20FA03F741EA0E0E08FA02F080
S2144044A028FA03F14FEA1E453843B1FBF5F8030CF2
S2144044B005FB18111FFA8EF743EA014107FB08F384
S2144044C08B420CFA02FC09D911EB0E0108F1FF39B8
S2144044D030D28B422ED9A8F102087144C91A80B254
S2144044E0B1FBF5F305FB131140EA014107FB03F767
S2144044F08F4208D911EB0E0103F1FF3016D28F42DE
S21440450014D9023B714443EA0843C91BA3FB0C89F8
S214404510494509D305D000221DE79646FEE61346D8
S21440452011E794404445F6D2013BF4E70346EAE7F8
S2144045308846A5E7C846D1E702468CE713460AE711
S214404540023B57E7A8F102082F443FE72DE9F04128
S214404550002B44D18A42154604464FD9B2FA82F718
S2144045600E464FB1C7F12003B94020FA03F602FACF
S21440457007F50E4300FA07F44FEA154E230CB6FB38
S214404580FEF0AFB20EFB106143EA014307FB00F1B9
S214404590994209D95B1900F1FF3280F0EC809942CC
S2144045A040F2E98002382B445A1AA4B2B2FBFEF31A
S2144045B00EFB132244EA024207FB03F7974208D950
S2144045C0521903F1FF3180F0D880974240F2D580EF
S2144045D0023B43EA004000263146BDE8F0818B426C
S2144045E047D8B3FA83F6002E48D18B4202D3824294
S2144045F000F2CD8001203146BDE8F08112B9012598
S214404600B5FBF2F5B5FA85F8B8F1000F77D14A1B3D
S2144046104FEA154EAFB20126B2FBFEF0230C0EFB5E
S214404620102143EA014107FB00F38B4207D94919A1
S21440463000F1FF3202D28B4200F2BA801046C91A0D
S214404640A4B2B1FBFEF30EFB131144EA014407FB90
S21440465003F7A74208D9641903F1FF3280F08F8030
S214404660A74240F28C80023B43EA00403146BDE818
S214404670F081002630463146BDE8F081C6F1200480
S21440468022FA04F5B3402B4320FA04FC01FA06F75D
S21440469021FA04F54FEA134E4CEA0707B5FBFEF83D
S2144046A0390C0EFB18551FFA83FC41EA05450CFBF6
S2144046B008F1A94202FA06F204D9ED1808F1FF34CF
S2144046C067D3A0466D1ABFB2B5FBFEF40EFB145579
S2144046D047EA05410CFB04FC8C4504D9C91804F193
S2144046E0FF355CD32C4644EA0844CCEB0101A4FBDE
S2144046F00223994248D344D0204600266CE7C8F1AE
S214404700200401FA08F305FA08F520FA04F7E14018
S2144047104FEA154E1F43B1FBFEF63A0C0EFB161140
S2144047201FFA85FC42EA01430CFB06F29A4200FA65
S21440473008F407D95B1906F1FF3137D29A4235D9CA
S214404740023E2B449B1ABFB2B3FBFEF00EFB103367
S21440475047EA03430CFB00F1994207D95B1900F185
S214404760FF3221D299421FD902382B445A1A40EAC6
S2144047700646674650E7104616E70B4629E71346B7
S21440478072E7B0409042B7D2601E002624E730461B
S21440479022E7A94295D9A8F102081D4492E78C4524
S2144047A0A0D9023C19449EE71046DFE70E46C9E70B
S2144047B00238294443E700BF202D2D2D2D2D2D2DC9
S2144047C02D2D2D2D2D2D2D2D2D2D2D2D2D2D2D2DD4
S2144047D02D2D2D2D2D200A0D2042656D2076696EDB
S2144047E0646F20436F72736920202109090A0D20E7
S2144047F02D2D2D2D2D2D2D2D2D2D2D2D2D2D2D2DA4
S2144048002D2D2D2D2D2D2D2D2D2D2D2D200A0D0010
S2144048102031203A206578696265206E6F76616D3A
S214404820656E74652065737365206D656E75200AC8
S2144048300D2032203A204174697661206F204C4525
S2144048404420200A0D2033203A204465736C696763
S21440485061206F204C4544200A0D20004C656420A2
S214404860424C5545204F4E200A0D00004C656420B2
S214404870424C5545204F4646200A0D004C65642064
S214404880475245454E204F4E200A0D004C65642049
S214404890475245454E204F4646200A0D0000000030
S2144048A04C656420524544204F4E200A0D000000BF
S2144048B04C656420524544204F4646200A0D000071
S2144048C061756D656E74616E646F200A0D00000040
S2144048D064696D696E75696E646F200A0D0000002C
S2144048E04F7063616F206E616F20646566696E69A4
S2144048F064613A202564200A0D0000004300000051
S214404900080000200A0000003030303030303030B0
S2144049103030303030303030303132333435363736
S2144049203839414243444546000000003031323376
S2144049303435363738396162636465660000000096
S214404940286E756C6C290000202020202020202016
S2144049502020202020202020F8B500BFF8BC08BC2E
S2144049609E46704739284000F1004000F8B500BF29
S210404970F8BC08BC9E467047CD004000D6
S20C40497C34F9FF7F0100000042
S21440498400093D000000000000000000F402002082
S2144049945C030020C4030020000000000000000068
S2144049A400000000000000000000000000000000BE
S2144049B4000000000000000000000000FC4840002A
S2144049C4000000000000000000000000000000009E
S2144049D4000000000000000000000000000000008E
S2144049E4000000000000000000000000000000007E
S2144049F4000000000000000000000000000000006E
S214404A04000000000000000000000000000000005D
S214404A14000000000000000000000000000000004D
S214404A24000000000000000000000000000000003D
S214404A3401000000000000000E33CDAB34126DE6DA
S214404A44ECDE05000B000000000000000000000043
S214404A54000000000000000000000000000000000D
S214404A6400000000000000000000000000000000FD
S214404A7400000000000000000000000000000000ED
S214404A8400000000000000000000000000000000DD
S214404DB40800002041534349490000000000000019
S214404DC4000000000000000000000000000000009A
S214404DD40000000001000000000000000000000089
S214404DE4580400205804002060040020600400207A
S214404DF4680400206804002070040020700400202A
S214404E0478040020780400208004002080040020D9
S214404E148804002088040020900400209004002089
S214404E249804002098040020A0040020A004002039
S214404E34A8040020A8040020B0040020B0040020E9
S214404E44B8040020B8040020C0040020C004002099
S214404E54C8040020C8040020D0040020D004002049
S214404E64D8040020D8040020E0040020E0040020F9
S214404E74E8040020E8040020F0040020F0040020A9
S214404E84F8040020F8040020000500200005002057
S214404E940805002008050020100500201005002005
S214404EA418050020180500202005002020050020B5
S214404EB42805002028050020300500203005002065
S214404EC43805002038050020400500204005002015
S214404ED448050020480500205005002050050020C5
S214404EE45805002058050020600500206005002075
S214404EF46805002068050020700500207005002025
S214404F0478050020780500208005002080050020D4
S214404F148805002088050020900500209005002084
S214404F249805002098050020A0050020A005002034
S214404F34A8050020A8050020B0050020B0050020E4
S214404F44B8050020B8050020C0050020C005002094
S214404F54C8050020C8050020D0050020D005002044
S214404F64D8050020D8050020E0050020E0050020F4
S214404F74E8050020E8050020F0050020F0050020A4
S214404F84F8050020F8050020000600200006002052
S214404F940806002008060020100600201006002000
S214404FA418060020180600202006002020060020B0
S214404FB42806002028060020300600203006002060
S214404FC43806002038060020400600204006002010
S214404FD448060020480600205006002050060020C0
S214404FE45806002058060020600600206006002070
S214404FF46806002068060020700600207006002020
S21440500478060020780600208006002080060020CF
S214405014880600208806002090060020900600207F
S2144050249806002098060020A0060020A00600202F
S214405034A8060020A8060020B0060020B0060020DF
S214405044B8060020B8060020C0060020C00600208F
S214405054C8060020C8060020D0060020D00600203F
S214405064D8060020D8060020E0060020E0060020EF
S214405074E8060020E8060020F0060020F00600209F
S214405084F8060020F806002000070020000700204D
S21440509408070020080700201007002010070020FB
S2144050A418070020180700202007002020070020AB
S2144050B4280700202807002030070020300700205B
S2144050C4380700203807002040070020400700200B
S2144050D448070020480700205007002050070020BB
S2144050E4580700205807002060070020600700206B
S2144050F4680700206807002070070020700700201B
S21440510478070020780700208007002080070020CA
S214405114880700208807002090070020900700207A
S2144051249807002098070020A0070020A00700202A
S214405134A8070020A8070020B0070020B0070020DA
S214405144B8070020B8070020C0070020C00700208A
S214405154C8070020C8070020D0070020D00700203A
S214405164D8070020D8070020E0070020E0070020EA
S214405174E8070020E8070020F0070020F00700209A
S214405184F8070020F8070020000800200008002048
S21440519408080020080800201008002010080020F6
S2144051A418080020180800202008002020080020A6
S2144051B42808002028080020300800203008002056
S2144051C43808002038080020400800204008002006
S2144051D448080020480800205008002050080020B6
S2104051E400000200FFFFFFFFF13F40000C
S8044008456E
