:020000040040BA
:10000000A03800202D114000291140002911400086
:100010002911400029114000291140000000000072
:100020000000000000000000000000002911400056
:100030002911400000000000291140002911400052
:1000400029114000291140002911400029114000C8
:1000500029114000291140002911400029114000B8
:10006000291140002911400000000000710F4000DC
:10007000850F4000990F40002911400029114000D0
:10008000000000000000000029114000291140007C
:10009000291140002911400029114000FD144000A1
:1000A0002911400029114000291140002911400068
:1000B0002911400039154000291140002911400044
:1000C00029114000291140002911400010B5054CAC
:1000D000237833B9044B13B10448AFF300800123F4
:1000E000237010BD380400200000000044174000B9
:1000F000084B10B51BB108480849AFF30080084809
:10010000036803B910BD074B002BFBD0BDE81040BE
:10011000184700BF00000000441740003C040020C6
:10012000441740000000000010B50E480E4B9847E1
:1001300000203E210D4B98470D4CA0470028FCD0D5
:100140000C4B98470C4A0D4B9A620D4CA047002867
:10015000FCD010200B4B98470B4B98470148024BA3
:10016000984710BD000E2707F112400015104000FF
:100170006910400079104000013F132000040E4038
:1001800089104000AD0F4000DD11400038B54FF43C
:100190000042244B5A600B20234CA0470C20A04760
:1001A0000D20A04713204FF06051204CA047142091
:1001B0004FF06051A04723201D49A0474C201D4906
:1001C000A0471D484FF4C0614FF000621B4B984799
:1001D0001B4D40202946A04741202946A0474220E8
:1001E0002946A04743202946A04744202946A04746
:1001F00045202946A04746202946A04747202946B2
:10020000A0474B202946A04748202946A0474F2019
:100210002946A04753202946A0474D204FF0405182
:10022000A04738BD50140E4099104000090D400001
:100230007900002859000028000E0E402D0E4000C5
:100240000100000870B483B0C0F11100102828BF6D
:100250001020002808BF01200021104E4FF4005547
:10026000182475630194019B5A1E0192002BFAD148
:1002700035630194019B5A1E0192002BFAD1013182
:100280008142EED34FF400330193019B5A1E019239
:10029000002BFAD103B070BC704700BF00120E40B3
:1002A00082B04FF40052064B5A634FF4003301936F
:1002B000019B5A1E0192002BFAD102B0704700BF79
:1002C00000120E400A4B1B78012B06D14FF0C2439F
:1002D00000221A7022221A707047022B07D14FF0A9
:1002E000C2432C221A7000221A703C221A707047E6
:1002F00014080020C0F30742034B1A70C0F3072212
:100300001A70C0B218707047020000612DE9F843FE
:100310000746884631F0070918D004460026124DDA
:1003200057F82600A8476068A847A068A847E06873
:10033000A8472069A8476069A847A069A847E0695D
:10034000A847083620344E45EAD300E00026B045E1
:1003500008D907EB8604044D54F8040BA84701366E
:10036000B045F9D8BDE8F883F50240004FF0C2432C
:1003700000221A7018700A0A02331A70C9B2197072
:10038000704700BF10B44FF0C24300241C701870B7
:100390004AB14B1E501E51FA80F1044813F8012F48
:1003A00002708B42FAD15DF8044B70470200006185
:1003B00082B000230193019B984211D90021094A80
:1003C0000191019B934205D8019B01330193019B4D
:1003D0009342F9D9019B01330193019B8342EFD3EF
:1003E00002B070479F86010030B4154C2468056840
:1003F000A54224BF04F1FF3505601568AC429CBFDF
:1004000004F1FF3414600F4C24680D68A54224BF2A
:1004100004F1FF350D601D68AC429CBF04F1FF3450
:100420001C6004681568AC4284BF056014600A68EB
:100430001868824284BF08601A6030BC704700BFF1
:10044000000000200400002082B04FF0C2430022D0
:100450001A70D3221A7002331A788DF800201A7895
:100460008DF801201A788DF802201B78DBB28DF808
:100470000330D2B203EB02239BB249F241329342E2
:1004800004D102220E4B1A70002017E04FF0C24335
:1004900000221A701A7002331A788DF800201B7827
:1004A000D2B203EB02239BB249F22532934204D12C
:1004B0000122034B1A70002000E0012002B07047B7
:1004C0001408002008B5094B1B78012B05D1072023
:1004D00040F23311064B984708BD022B04D1292066
:1004E00000210A46034B984708BD00BF14080020AE
:1004F0006D03400085034000044A131F02F56F722C
:1005000043F8040F9342FBD1704700BF540400200E
:100510002DE9F04182B00C4617461E46224B1B784F
:10052000012B14D185B250202946DFF88480C047C2
:10053000791E2944512089B2C047A4B252202146D5
:10054000C047711E2144532089B2C04728E0022BC6
:1005500026D1030A8DF80430C3B28DF80530013A74
:100560001044000A8DF8060017461F448DF80770E6
:100570002A2001A904220D4DA847230A8DF8043032
:10058000E3B28DF80530721E1444240A8DF806403B
:1005900016461E448DF807602B2001A90422A847A7
:1005A00002B0BDE8F08100BF1408002085034000C0
:1005B0006D03400038B5064B1B78012B07D10C4664
:1005C00001462020034DA84721202146A84738BDD9
:1005D000140800206D0340002DE9F04383B0064667
:1005E000AC4B9847002840F04F81F022AA4B1A608C
:1005F0004FF4A072A94B1A60A94B1B78012B40F055
:10060000B18007203321A74CA04710200021A0472C
:1006100000200121A04701204FF48071A047022053
:100620004FF4E061A04704200021A047082040F2D9
:100630000721A04709200021A0470A200021A04748
:100640000C200021A0470D200021A0470F200021F1
:10065000A04710200021A04711200021A047122010
:100660000021A04713200021A047C8208E4DA84795
:10067000102041F29021A047112040F22721A047ED
:100680003220A84712201B21A0473220A847132060
:100690004FF48851A04729201921A0472B200D2174
:1006A000A0473220A84730200021A04731204FF436
:1006B0000171A04732204FF40071A0473520072177
:1006C000A047362041F20441A047372040F205718F
:1006D000A047382040F20531A047392040F2077189
:1006E000A0473C2040F20171A0473D200E21A047C9
:1006F00003204DF21001A04760204FF42741A0478E
:1007000061200121A0476A200021A047802000210C
:10071000A04781200021A04782200021A0478320FC
:100720000021A04784200021A04785200021A04768
:1007300090201021A04792204FF4C061A04795203F
:100740004FF48871A0470020014632687368574C07
:10075000A047B068564B984700200146554B984734
:10076000002094E0022B40F0918039238DF8003076
:100770002C238DF8013000248DF8024034238DF8AD
:10078000033002278DF80470CB20694605224A4DBC
:10079000A8478DF80040AA238DF80130B0238DF8CA
:1007A0000230CF2069460322A84730238DF800305D
:1007B000F72069460122A84725238DF80030C02084
:1007C00069460122A8474FF011098DF80090C12019
:1007D00069460122A8475C238DF800304C238DF830
:1007E0000130C52069463A46A84794238DF8003069
:1007F000C72069460122A84785238DF800304FF0B5
:1008000001088DF8018078238DF80230E8206946D0
:100810000322A8478DF800408DF80140EA20694680
:100820003A46A84748238DF80030362069464246AC
:10083000A84706238DF800303A2069464246A8476B
:100840008DF8007082238DF8013027238DF8023057
:100850008DF80340B62069460422A8472046214669
:1008600032687368114FB847B068114B98474846D3
:1008700069462246A8470A200B4B9847292069461B
:100880002246A847204602E0012000E0012003B0F4
:10089000BDE8F0834904400000000020040000206F
:1008A000140800206D034000B10340001105400012
:1008B000F9044000B50540008503400010B5164B13
:1008C0001B68834221D9154B1B688B421FD9144BDF
:1008D0001B78012B0BD180B289B2124B9847124B77
:1008E0009847124B1868124B9847002010BD022BF6
:1008F0000FD1002213460F4CA0470B4B98470B4BD0
:1009000018680B4B9847002010BD012010BD012036
:1009100010BD002010BD00BF00000020040000201A
:1009200014080020B5054000C50240005404002012
:10093000F5024000110540002DE9F04184B003901C
:1009400002910192009303A802A901AA6B46224CCE
:10095000A047039D029C01994A1C00994B1C284604
:100960002146521B1B1B1D4CA047BDF80C00BDF8B7
:1009700008101B4B98471B4B9847029A009B9A1AEA
:10098000019B03F10108039BC3EB080802FB0888E5
:10099000154CA4FB0834E40907D0144FF026144D7D
:1009A00038463146A847013CFAD10F49A1FB08312E
:1009B000C909C1EB01110D48A8EB01110C4B984777
:1009C000002001460B4B1A680B4B1B68034CA047D9
:1009D00004B0BDE8F08100BFE9034000110540000C
:1009E000B5054000C502400089888888540400206D
:1009F0000D03400000000020040000202DE9F04F0E
:100A000083B006468846994201D0904204D13046D0
:100A100041462B4CA04750E081460F46121A5B1A04
:100A2000002ACCBF01214FF0FF310091002BCCBF39
:100A300001214FF0FF31019182EAE275A5EBE275E9
:100A400083EAE374A4EBE37441461E4B9847A54246
:100A50001ADD4FEA6508002D2FDD009B99461E44E4
:100A60004FF0010ADFF85CB0A044454503DCC5EB5C
:100A70000808019B1F4430463946D8470AF1010A4D
:100A80004E445545F0DA18E06710002C15DD019B47
:100A90009B4643441E464FF00108DFF828A02F4430
:100AA000BC4202DC3F1B009B994448463146D0477C
:100AB00008F101085E444445F1DA03B0BDE8F08F67
:100AC00039094000BD084000002A44D02DE9F04F0C
:100AD00083B081468A4616465700C7F103070025B2
:100AE0001F4C05EB090B06EB0A0858464146A04788
:100AF000C6EB0A03584601931946A047C5EB090BFC
:100B000058464146A04758460199A04706EB090BB5
:100B100005EB0A0858464146A047C5EB0A0358466C
:100B200001931946A047C6EB090B58464146A0471A
:100B300058460199A047002F03DA07EB85070637CF
:100B400004E00A37AB1B07EB8307013E0135AE42D9
:100B5000C7D2002001E00120704703B0BDE8F08F4C
:100B6000BD08400030B4012404600024446040F219
:100B70000225C0F82051C0F80441C0F8144145686E
:100B80002B435200B1FBF2F14A1E120292B2134300
:100B90004360204630BC704743681943D201D2B24B
:100BA00011434160704700BF10B4446822430906F6
:100BB00001F070610A431B0703F040531343436085
:100BC0005DF8044B704700BF02230360704700BF0D
:100BD00001238B40036170470F299ABF143150F8ED
:100BE00021000020704700BF41627047006B7047D2
:100BF00009014250704700BF00EB01114A60704785
:100C000000EB01118A60704700EB0111CA60704768
:100C10004264B1F1C05F2FD007D8B1F1006F14D09A
:100C2000B1F1805F1ED039B97047B1F1205F37D084
:100C300004D8B1F1005F29D042607047B1F1405F44
:100C40002ED0B1F1605F2BD0F6E710B4016F046FC6
:100C5000D343214019400167416F446F21400B404D
:100C600043671AE0036F13430367436F416F0B4001
:100C700023EA02034367DFE7036F016F0B4023EAB8
:100C800002030367436F13434367D5E7036F1343BF
:100C90000367436F13434367CEE742605DF8044B3D
:100CA000704700BF416412F0010F14BF4166016636
:100CB00012F00A0F14BF0162416212F0020F02D05B
:100CC000C0F8801004E012F0080F18BFC0F88410BC
:100CD00041610160704700BF10B44164019C0CB1D8
:100CE000416600E001660BB1016500E041650AB1B3
:100CF000016300E04163016101605DF8044B7047EE
:100D0000C06C7047806C704770B582B00D46430967
:100D100003F5001303F207735C0201F0F043B3F133
:100D2000005F47D009D8B3F1805F21D0B3F1C05F35
:100D30002FD0B3F1006F6FD109E0B3F1405F55D010
:100D4000B3F1605F52D0B3F1205F44D064E000F0B3
:100D50001F000126864020464FF000613246304B8E
:100D6000984715F0010F14BF66662666012054E00F
:100D700000F01F000126864020464FF08051324689
:100D8000274B984715F0010F14BF666626660120B1
:100D900043E000F01F000126864020464FF0C0517E
:100DA00032461F4B984715F0010F14BF6666266642
:100DB000012032E000F01F000126864020464FF05F
:100DC00000513246164B984715F0010F14BF666666
:100DD0002666012021E000F01F030126204606FAC6
:100DE00003F12A460F4B9847304616E000F01F03E8
:100DF000012605F0605205EA06010091204606FA38
:100E000003F1B2F1605F14BF00220122C5F3800339
:100E1000054CA047304600E0002002B070BD00BF86
:100E2000110C4000A50C4000D90C400070B582B0F8
:100E300006460D46144602F0F043B3F1005F38D089
:100E400009D8B3F1805F1CD0B3F1C05F25D0B3F1F6
:100E5000006F50D109E0B3F1405F3AD0B3F1605F69
:100E600037D0B3F1205F30D045E04FF000612A4623
:100E7000224B984714F0010F14BF756635660120A8
:100E80003AE04FF080512A461C4B984714F0010F6E
:100E900014BF7566356601202EE04FF0C0512A461A
:100EA000164B984714F0010F14BF75663566012084
:100EB00022E04FF000512A46104B984714F0010FE2
:100EC00014BF75663566012016E00D4B984701206A
:100ED00012E004F0605204F001030093304629460A
:100EE000B2F1605F14BF00220122C4F38003054CFD
:100EF000A047012000E0002002B070BD110C4000AE
:100F0000A50C4000D90C40002DE9F84381468846E5
:100F1000124B984705464846114B9847054013D059
:100F2000104C04F160062368434508D161682942EA
:100F300005D0E36840469847636825EA0305B44254
:100F400002D01034002DEED1074B1B6823B1074BA4
:100F50001B680BB148469847BDE8F883010D400077
:100F6000050D40001C0800208C08002018080020F7
:100F700008B502480B21024B984708BD000E0E40F1
:100F8000090F400008B502480C21024B984708BDE4
:100F900000100E40090F400008B502480D21024B19
:100FA000984708BD00120E40090F4000184A136B05
:100FB00023F0700318431063936E13F0080F03D0EF
:100FC00009E0013B03D11EE04FF4006310498A6E33
:100FD00012F0080FF5D00E4A136B23F0030343F011
:100FE00002031363906E10F0080004D000207047D5
:100FF000013B03D109E04FF4006305498A6E12F00A
:10100000080FF5D07047012070470120704700BFDE
:1010100000040E4038B111490B6A114A1A40114BB5
:1010200013430B6270470D4A136A23F45C1323F0D9
:10103000030343F45C1343F00103090289B20B4339
:101040001362936E13F0010FFBD0044A136A43F04E
:101050009B7343F480331362704700BF00040E405B
:10106000FCFFC8FE02003701024B986E00F480308E
:10107000704700BF00040E404FF00052014B9A62CF
:10108000704700BF00040E40024B986E00F0020053
:10109000704700BF00040E4022281ED81F280CD81D
:1010A000114B9A69012383401A40934217D00123C0
:1010B00083400D4A1361002070470B4BD3F8082181
:1010C0002038012383401A4093420AD001238340F1
:1010D000054AC2F800310020704701207047002007
:1010E00070470020704700BF00040E4010B4890113
:1010F0004318022444504FF0FF319962196A5A6034
:101100005DF8044B704700BF8901052343507047C9
:1011100000EB8111CA61704700EB81114A62704790
:1011200000EB8111086A7047FEE700BF08B5204B4D
:10113000204A9A4213D9204B1D4A9A421FD2114687
:10114000043203339B1A23F003030433194A134474
:1011500052F8040B41F8040B9A42F9D10FE0144BFA
:10116000144A9A420BD2144B114A9A1A1348811806
:101170002AB151F8042943F8042D8142F9D100BF66
:101180000F4B104A9A420BD2131D0F4AD21A22F06B
:1011900003021A44043B002143F8041B9342FBD191
:1011A0000A4B0B4A9A600B4B98470B4B9847FEE74C
:1011B0000000002044174000380400204017400081
:1011C000A008002038040020A308002000ED00E063
:1011D00000004000D91540005D1540003D4B1B6BE1
:1011E00003F00303032B5DD8DFE803F0020E2B2B83
:1011F000394B5B6913F0800F14BF4FF400424FF47A
:10120000FA42364B1A604DE0324B1B6A13F0807F76
:1012100003D0334A314B1A6044E0324A2F4B1A60F4
:101220002C4B1B6A03F07003102B02D0202B04D030
:1012300038E02D4A294B1A6034E0294A274B1A60BE
:1012400030E0244B1B6A13F0807F03D0244A234BE9
:101250001A6012E0234A214B1A601E4B1B6A03F0EE
:101260007003102B02D0202B04D006E01E4A1B4B2B
:101270001A6002E01A4A194B1A60164B1B6B03F0F6
:101280000303022B134A07BF936A926AD36AD26A96
:101290001248C3F30A41036801FB0333D2B2B3FB24
:1012A000F2F303600B4B1B6B03F07003702B07D141
:1012B0000A4A13680D49A1FB03135B0813607047CA
:1012C000044B1A6B0549C2F302120B68D3400B6042
:1012D000704700BF00040E4010140E4008000020AC
:1012E000001BB70000093D0000127A00ABAAAAAAB1
:1012F0001A4B984207D84FF08063194A136002F5E1
:10130000007213607047174B984206D8164B144A68
:10131000136002F5007213607047144B984206D8B0
:10132000134B0F4A136002F5007213607047114BA4
:10133000984206D8104B0A4A136002F500721360F7
:1013400070470E4B984294BF4FF004230C4B044A55
:10135000136002F500721360704700BFFF2C31016B
:10136000000A0E40FF59620200010004FF86930349
:1013700000020004FFB3C40400030004FFE0F5050D
:10138000000500042DE9F0410A202A4B98472A4C19
:10139000204601214FF00232284B98472046012178
:1013A000274A284B984720460121274A274B984730
:1013B000204601210322264B9847264DF0272F6017
:1013C0004FF4A0766E600024AC606FF07F48C5F8E3
:1013D0000C80214B98472846204B98470820204BEB
:1013E000984740461F4DA847204621463A46334677
:1013F0001D4EB0471D4B9847204621461C4B984731
:101400002046A8477820A02128221A4B9847782008
:10141000A0213C220B46184CA0477820A021024670
:101420006423A0477820A021B4220B46A047BDE842
:10143000F08100BF9910400000000E40F10B400009
:1014400004040A0AF90B40000A001600010C4000CF
:10145000090C400090080020A1024000D90540007E
:1014600045024000F904400039094000C50440002D
:10147000B5054000C90A4000FD09400038B51D20EF
:10148000134B9847134C20461349144A4FF48023BA
:10149000134DA847204601214FF440120B46114D31
:1014A000A847204600210A460F4B984720460021B6
:1014B0000E4B98474FF000520D4B1A6020460D4BD3
:1014C000984720464FF080510B4B984738BD00BFDE
:1014D0009910400000800340000E270700A861001B
:1014E000650B4000A90B4000990B4000D10B400058
:1014F00000E100E0C90B4000E90B400000B583B0FB
:1015000008480021084B98470190019B0748084B69
:10151000984710F0010F02D00448064B984703B0DB
:101520005DF804FB000001402111400000800340F1
:10153000ED0B4000C90B400008B50548054B984726
:1015400010F0805F03D002480021034B984708BD8C
:1015500000800340ED0B4000D90B400008B5134B51
:101560009847134B9847134B9847134B98471720AE
:10157000124B9847124C2046002144F20402114BB2
:1015800098472046002140F216220F4B98474FF40F
:1015900000020E4B1A602046002110220C4B984787
:1015A000204600210B4B9847FEE700BF2901400071
:1015B0008D014000851340007D14400099104000CB
:1015C00000000140ED1040001111400000E100E07A
:1015D000191140000911400070B50F4E0F4D761BD8
:1015E000B61018BF002405D0013455F8043B9847C5
:1015F000A642F9D10A4E0B4D761B00F091F8B610B9
:1016000018BF002406D0013455F8043B9847A64281
:10161000F9D170BD70BD00BF2C1740002C174000E1
:10162000341740002C174000024B13B1024800F061
:1016300005B8704700000000491640000146002030
:101640000246034600F016B838B5084B084DED1AAF
:10165000AC1018BFED1805D0013C55F8043D984773
:10166000002CF9D1BDE8384000F064B840174000C4
:10167000441740002DE9F047254C2568D5F848412E
:101680000646884692469946CCB360681F2818DC07
:10169000431C7EB104EB80050121C5F888A0D4F875
:1016A000887101FA00F21743022EC4F88871C5F858
:1016B00008911ED00230636044F820800020BDE80D
:1016C000F087144B03B34FF4C870AFF300800446A7
:1016D000D0B1D5F84831002780E88800C5F84841E6
:1016E00038460123C4F88871C4F88C71002EE1D00B
:1016F000D0E7D4F88C110A43C4F88C21DAE705F559
:10170000A674C5F84841C0E74FF0FF30BDE8F08748
:101710001C174000000000004300000010000020E3
:10172000F8B500BFF8BC08BC9E46704729164000BB
:10173000F1004000F8B500BFF8BC08BC9E467047F9
:04174000CD00400098
:10174400F00000004001000000093D00000000001E
:1017540000000000FC02002064030020CC030020F1
:101764000000000000000000000000000000000075
:101774000000000000000000000000000000000065
:1017840000000000181740000000000000000000E6
:101794000000000000000000000000000000000045
:1017A4000000000000000000000000000000000035
:1017B4000000000000000000000000000000000025
:1017C4000000000000000000000000000000000015
:1017D4000000000000000000000000000000000005
:1017E40000000000000000000000000000000000F5
:1017F40000000000000000000100000000000000E4
:101804000E33CDAB34126DE6ECDE05000B000000A8
:1018140000000000000000000000000000000000C4
:1018240000000000000000000000000000000000B4
:1018340000000000000000000000000000000000A4
:101844000000000000000000000000000000000094
:040000050040112D79
:00000001FF
