:020000040040BA
:10000000483D00205D22400025234000252340007C
:100010002523400025234000252340000000000048
:100020000000000000000000000000002523400048
:100030002523400000000000252340002523400028
:100040002523400025234000252340002523400090
:100050002523400025234000252340002523400080
:10006000252340002523400000000000351F4000EC
:100070004D1F4000651F4000252340002523400000
:100080000000000000000000252340002523400060
:10009000252340002523400025234000652A4000F9
:1000A0002523400025234000252340002523400030
:1000B00025234000252A4000252340002523400019
:1000C00025234000252340002523400010B5054C82
:1000D000237833B9044B13B10448AFF300800123F4
:1000E000237010BD8408002000000000449A4000E6
:1000F000084B10B51BB108480849AFF30080084809
:10010000036803B910BD074B002BFBD0BDE81040BE
:10011000184700BF00000000449A400088080020F3
:10012000449A40000000000080B487B000AFF8603F
:10013000B9607A603B60FB6801221A60FB680022AC
:100140005A60FB6840F20222C3F82021FB680022BB
:10015000C3F80421FB680022C3F814217B685B000C
:10016000BA68B2FBF3F3013B7B61FB685A687B69B9
:100170001B0299B23B680B431A43FB685A60002389
:1001800018461C37BD465DF8047B704780B483B0C9
:1001900000AF78600B46FB701346BB707B685A68F3
:1001A000F978BB78DB01DBB20B431A437B685A60FA
:1001B0000C37BD465DF8047B704700BF80B485B046
:1001C00000AFF8607A601A460B46FB721346BB72AA
:1001D000FB685A68BB7A1B0703F040517B681943E0
:1001E000FB7A1B0603F070630B431A43FB685A60EB
:1001F0001437BD465DF8047B704700BF80B483B000
:1002000000AF78607B6802221A600C37BD465DF84B
:10021000047B704780B483B000AF78600B46FB70FE
:10022000FB78012202FA03F31A467B681A610C3745
:10023000BD465DF8047B704780B485B000AF786040
:100240000B46FB700023FB60FB780F2B05D8FA7878
:100250007B68143253F82230FB60FB681846143771
:10026000BD465DF8047B704780B483B000AF786012
:1002700039607B683A685A620C37BD465DF8047B8A
:10028000704700BF80B483B000AF78607B681B6BA1
:1002900018460C37BD465DF8047B704780B483B0C8
:1002A00000AF78607B68D3F8943043F010027B682D
:1002B000C3F894200C37BD465DF8047B704700BF3F
:1002C00080B487B000AFF860B9607A60BB689B010A
:1002D000FA6813447B617B6902221A607B694FF0E4
:1002E000FF329A627B691B6A7B697A685A601C37A5
:1002F000BD465DF8047B704780B483B000AF786082
:1003000039607A683B689B01134405221A600C37F8
:10031000BD465DF8047B704780B485B000AFF860DF
:10032000B9607A60FA68BB689B01134418337A6835
:100330005A601437BD465DF8047B704780B487B0BF
:1003400000AFF860B9607A60BB689B01FA6813443B
:100350007B617B697A685A621C37BD465DF8047B15
:10036000704700BF80B485B000AF786039603B68EB
:100370009B017A681344FB60FB681B6A18461437BC
:10038000BD465DF8047B704780B582B000AF7860F1
:100390007B68072B30D801A252F823F0F903400004
:1003A000BD034000C5034000CD034000D50340001D
:1003B000DD034000E5034000EF0340000020104B48
:1003C000984719E001200E4B984715E000200D4B8F
:1003D000984711E010200B4B98470DE02020094B67
:1003E000984709E000203E21074B984704E0012090
:1003F0003E21054B984700BF0837BD4680BD00BF72
:10040000012040006D204000DD20400080B582B01A
:1004100000AF78607B68072B26D801A252F823F042
:10042000410440004504400045044000570440009A
:100430005704400057044000570440005704400050
:10044000012312E00B4B98470346002B14BF0123F6
:100450000023DBB209E0084B98470346002B14BF8A
:1004600001230023DBB200E0002318460837BD4615
:1004700080BD00BF392040005521400080B483B0CA
:1004800000AF78607B68072B25D801A252F823F0D3
:10049000B1044000B7044000BD044000C304400064
:1004A000C7044000CB044000CF044000D304400008
:1004B0004FF4FA4310E04FF400430DE04FF40043D3
:1004C0000AE0084B08E0084B06E0084B04E0074B45
:1004D00002E0064B00E0002318460C37BD465DF8ED
:1004E000047B704700093D0000127A00001BB70032
:1004F00080B582B000AF0346FB7100BFFB791846A0
:10050000054B9847034683F00103DBB2002BF5D17E
:100510000837BD4680BD00BF0D04400080B586B0E1
:1005200000AFF8607A603B600B46FB72FB7A1846BE
:100530000D4B984702467B68B2FBF3F37B617B6906
:100540003A6802FB03F37B613B68013B1A04074BEB
:1005500013407A68D2B2134343F47C52FB681A60AA
:100560001837BD4680BD00BF7D0440000000FF0776
:1005700080B582B000AF786039603B68002B08D14D
:10058000084B9847084A7B681B6843F00053936206
:1005900005E0064B9847044A7B681B68D36208371E
:1005A000BD4680BD7121400000040E40A5214000E1
:1005B00080B582B000AF78607B68002B03D1054B1B
:1005C0009847034602E0044B98470346184608370D
:1005D000BD4680BD89214000BD21400080B582B06C
:1005E00000AF0346FB71FB79033B042B08D8FB7972
:1005F0001846054B9847FB791846044B984700E08E
:1006000000BF0837BD4680BD89034000F1044000AB
:1006100080B582B000AF786000BF7868044B98471F
:100620000346002BF9D0002318460837BD4680BD8D
:10063000B105400080B500AF0620044B9847024644
:1006400013469B0013449B00184680BD7D04400068
:1006500080B500AF024B984703465B08184680BD43
:100660003506400090B583B000AF1148114B984754
:100670000620114B98473B1D1846062101221423E2
:100680000E4CA0473B1D184600210D4B98470020FB
:100690000C4B984710200C4B98470C4B98470C4B31
:1006A000984703461846034B98470C37BD4690BD04
:1006B000000E2707C9244000DD0540001D0540004D
:1006C00071054000110640007D1F40002D234000B1
:1006D0005106400080B582B000AF78607868024B68
:1006E00098470837BD4680BDD921400080B500AF8E
:1006F0000B20044B98470C20024B98470D20014BD0
:10070000984780BDD506400080B500AF2A4B4FF416
:1007100000425A60294B984713204FF06051284BF4
:10072000984714204FF06051254B984723202549C6
:10073000234B98474C202449214B984723484FF49A
:10074000C0614FF00062224B9847402021491C4B6A
:10075000984741201F491A4B984742201D49184B82
:10076000984743201B49164B984744201949144B7E
:10077000984745201749124B984746201549104B7A
:100780009847472013490E4B98474B2011490C4B73
:10079000984748200F490A4B98474F200D49084B6E
:1007A000984753200B49064B98474D204FF0405136
:1007B000034B984780BD00BF50140E40ED0640002B
:1007C000F51A40007900002859000028000E0E405C
:1007D000AD1C40000100000880B48BB000AF786011
:1007E0000B46FB707B687B62FB7887F823307B6A63
:1007F000FB61FB69BB61BB695B097B617B6903F5DD
:10080000001303F207735B023B6197F82330002B60
:1008100009D07B6AFB60FB6803F01F0301229A404A
:100820003B691A6308E07B6ABB60BB6803F01F0387
:1008300001229A403B695A632C37BD465DF8047B20
:10084000704700BF80B584B000AF78607B68C3F1AB
:1008500011037B607B68102B28BF10237B607B68B3
:10086000002B01D07B6800E001237B600023FB604C
:100870001AE04D200021144B98471823BB6000BF9D
:10088000BB685A1EBA60002BFAD14D2001210E4BD5
:1008900098471823BB6000BFBB685A1EBA60002B84
:1008A000FAD1FB680133FB60FA687B689A42E0D3B7
:1008B0004FF40033BB6000BFBB685A1EBA60002B08
:1008C000FAD11037BD4680BDD907400080B582B04F
:1008D00000AF4D200021074B98474FF400337B6059
:1008E00000BF7B685A1E7A60002BFAD10837BD46DC
:1008F00080BD00BFD907400080B483B000AF03467D
:10090000FB714FF0C242FB7913700C37BD465DF8A6
:10091000047B704780B483B000AF0346FB71044A88
:10092000FB7913700C37BD465DF8047B704700BF40
:100930000200006180B400AF034B1B78DBB21846A5
:10094000BD465DF8047B70470200006180B500AFD2
:100950000C4B1B78012B06D100200B4B9847222013
:10096000094B98470CE0074B1B78022B08D12C2031
:10097000054B98470020044B98473C20024B984772
:1009800080BD00BFA0080020F908400080B582B0FB
:1009900000AF78607B681B0CDBB21846074B9847AA
:1009A0007B681B0ADBB21846044B98477B68DBB2B6
:1009B0001846024B98470837BD4680BD15094000D0
:1009C00080B584B000AF786039600023FB6049E0F7
:1009D000FB689B007A6813441B6818462E4B9847A7
:1009E000FB6801339B007A6813441B6818462A4B46
:1009F0009847FB6802339B007A6813441B681846CB
:100A0000254B9847FB6803339B007A6813441B68A7
:100A10001846214B9847FB6804339B007A681344BF
:100A20001B6818461C4B9847FB6805339B007A6887
:100A300013441B681846184B9847FB6806339B0005
:100A40007A6813441B681846134B9847FB680733B2
:100A50009B007A6813441B6818460F4B9847FB6845
:100A60000833FB603B6823F00702FB689A42AFD86B
:100A70000AE0FB689B007A6813441B681846064B23
:100A80009847FB680133FB60FA683B689A42F0D3F1
:100A90001037BD4680BD00BF8D09400080B582B0D3
:100AA00000AF03460A46FB711346BB8000200A4B89
:100AB0009847FB791846084B9847BB881B0A9BB29E
:100AC000DBB21846054B9847BB88DBB21846034B90
:100AD00098470837BD4680BDF90840001509400019
:100AE00080B584B000AF03463960FB711346BB711B
:100AF00000200D4B9847FB7918460B4B9847002375
:100B0000FB7309E0FB7B3A6813441B781846074BDC
:100B10009847FB7B0133FB73FA7BBB799A42F1D395
:100B20001037BD4680BD00BFF908400015094000E0
:100B300090B585B000AF03463960FB711346BB71B9
:100B400000200D4B9847FB7918460B4B9847002324
:100B5000FB7309E0FB7B3A68D418084B98470346BF
:100B60002370FB7B0133FB73FA7BBB799A42F1D391
:100B70001437BD4690BD00BFF9084000350940005C
:100B800080B485B000AF78600023FB600CE00023E8
:100B9000FB6002E0FB680133FB60FB68074A93429D
:100BA000F8D9FB680133FB60FA687B689A42EED3A0
:100BB0001437BD465DF8047B704700BF9F86010077
:100BC00080B487B000AFF860B9607A603B60FB68C2
:100BD0001A68274B1B689A4204D3254B1B685A1E80
:100BE000FB681A607B681A68214B1B689A4204D321
:100BF0001F4B1B685A1E7B681A60BB681A681D4B26
:100C00001B689A4204D31B4B1B685A1EBB681A60B0
:100C10003B681A68174B1B689A4204D3154B1B6834
:100C20005A1E3B681A60FB681A687B681B689A4208
:100C300009D9FB681B687B617B681A68FB681A60CE
:100C40007B687A691A60BB681A683B681B689A42BD
:100C500009D9BB681B687B613B681A68BB681A606E
:100C60003B687A691A601C37BD465DF8047B7047A3
:100C7000000000200400002080B582B000AF3B4699
:100C8000D32019460422184B9847BB789BB21B020D
:100C90009AB2FB789BB21344FB80FB8849F2413245
:100CA000934204D1114B02221A70002318E03B46F4
:100CB0000020194602220C4B98473B789BB21B023E
:100CC0009AB27B789BB21344FB80FB8849F22532B1
:100CD000934204D1054B01221A70002300E0012346
:100CE00018460837BD4680BD310B4000A0080020E3
:100CF00090B585B000AF78607A4B98470346002BDB
:100D000001D00123ADE1784BF0221A60774B4FF40C
:100D1000A0721A60764B1B78012B40F0F5800720FB
:100D20003321744B984710200021724B98470020C4
:100D30000121704B984701204FF480716D4B98470B
:100D400002204FF4E0616B4B984704200021694B6F
:100D50009847082040F20721664B98470920002158
:100D6000644B98470A200021624B98470C200021D1
:100D7000604B98470D2000215E4B98470F200021C3
:100D80005C4B9847102000215A4B984711200021B6
:100D9000584B984712200021564B984713200021AA
:100DA000544B9847C820544B9847102041F290214B
:100DB000504B9847112040F227214E4B9847322044
:100DC0004D4B984712201B214A4B984732204A4BE3
:100DD000984713204FF48851464B984729201921F2
:100DE000444B98472B200D21424B98473220424BD1
:100DF0009847302000213F4B984731204FF4017134
:100E00003C4B984732204FF400713A4B98473520BD
:100E10000721384B9847362041F20441354B98471B
:100E2000372040F20571334B9847382040F20531A6
:100E3000304B9847392040F207712E4B98473C20A1
:100E400040F201712B4B98473D200E21294B9847CA
:100E500003204DF21001274B984760204FF42741A3
:100E6000244B984761200121224B98476A2000219A
:100E7000204B9847802000211E4B9847812000215D
:100E80001C4B9847822000211A4B98478320002151
:100E9000184B984784200021164B98478520002145
:100EA000144B984790201021124B984792204FF4F2
:100EB000C061104B984795204FF488710D4B9847AF
:100EC0007B681A687B685B68002000210B4CA04798
:100ED0007B689B6818460A4B984700200021094B05
:100EE0009847BDE0790C400000000020040000207D
:100EF000A00800209D0A4000810B4000ED1040003A
:100F0000B9104000E1114000584B1B78022B40F013
:100F1000A58039233B722C237B720023BB723423C0
:100F2000FB7202233B7307F10803CB20194605220D
:100F30004F4B984700233B72AA237B72B023BB72AE
:100F400007F10803CF2019460322494B9847302365
:100F50003B7207F10803F72019460122444B9847DA
:100F600025233B7207F10803C02019460122404B9C
:100F7000984711233B7207F10803C120194601224B
:100F80003B4B98475C233B724C237B7207F1080371
:100F9000C52019460222364B984794233B7207F12D
:100FA0000803C72019460122314B984785233B721D
:100FB00001237B727823BB7207F10803E8201946EE
:100FC00003222B4B984700233B7200237B7207F1CF
:100FD0000803EA2019460222254B984748233B7212
:100FE00007F10803362019460122214B98470623B2
:100FF0003B7207F108033A20194601221C4B98471F
:1010000002233B7282237B722723BB720023FB7275
:1010100007F10803B62019460422154B98477B6850
:101020001A687B685B6800200021124CA0477B682F
:101030009B681846104B984707F108031120194682
:1010400000220B4B98470A200C4B984707F10803E6
:10105000292019460022064B984701E0012300E0B1
:10106000002318461437BD4690BD00BFA0080020DD
:10107000E10A4000ED104000B9104000810B400033
:1010800080B500AF094B1B78012B05D1072040F23A
:101090003311074B984708E0044B1B78022B04D10F
:1010A000292000210022034B984780BDA008002082
:1010B0009D0A4000E10A400080B485B000AF78602E
:1010C0000023FB6007E00849FB687A6841F82320A9
:1010D000FB680133FB60FB68EF2BF4D91437BD4686
:1010E0005DF8047B704700BFA408002080B586B07F
:1010F00000AFF860B9607A603B60364B1B78012B1B
:1011000024D1FB689BB250201946334B9847FB68AB
:101110009AB27B689BB213449BB2013B9BB25120B5
:1011200019462D4B9847BB689BB2522019462A4B53
:101130009847BB689AB23B689BB213449BB2013B91
:101140009BB253201946244B98473FE0214B1B7814
:10115000022B3BD1FB681B0ADBB23B75FB68DBB2A1
:101160007B75FA687B681344013B1B0ADBB2BB75D5
:10117000FB68DAB27B68DBB21344DBB2013BDBB263
:10118000FB7507F114032A2019460422134B9847D4
:10119000BB681B0ADBB23B75BB68DBB27B75BA6808
:1011A0003B681344013B1B0ADBB2BB75BB68DAB278
:1011B0003B68DBB21344DBB2013BDBB2FB7507F1EA
:1011C00014032B2019460422044B98471837BD46B8
:1011D00080BD00BFA00800209D0A4000E10A400039
:1011E00080B582B000AF03460A46FB801346BB8041
:1011F000084B1B78012B09D1FB8820201946064B90
:101200009847BB8821201946034B98470837BD46AD
:1012100080BD00BFA00800209D0A400090B583B0AB
:1012200000AF786039601B4B1B687A689A4204D221
:10123000194B1B683A689A4201D3012325E0174BEA
:101240001B78012B0FD17B689AB23B689BB210468A
:101250001946134B9847134B9847134B1B68184676
:10126000124B984710E00D4B1B78022B0CD178687D
:101270003968002200230E4CA0470A4B98470A4BBE
:101280001B681846094B9847002318460C37BD4683
:1012900090BD00BF0000002004000020A008002036
:1012A000E11140004D094000A40800208D094000D4
:1012B000ED10400080B58CB000AFF860B9607A6086
:1012C0003B60FB687B62BB683B627A68FB68D31A51
:1012D000FB613A68BB68D31ABB61FB69002B01DD77
:1012E000012301E04FF0FF337B61BB69002B01DD7F
:1012F000012301E04FF0FF333B617A68FB68D31AAA
:10130000002BB8BF5B42FB613A68BB68D31A002B65
:10131000B8BF5B42BB617A6A3B6A104619462C4BE8
:101320009847FA69BB699A4227DDFB695B10BB628B
:101330000123FB621CE07A6A7B6913447B62BA6A10
:10134000BB691344BB62BA6AFB699A4207DBBA6A9B
:10135000FB69D31ABB623A6A3B6913443B627A6AFF
:101360003B6A104619461A4B9847FB6A0133FB62E9
:10137000FA6AFB699A42DEDD26E0BB695B10BB625C
:101380000123FB621CE03A6A3B6913443B62BA6A80
:10139000FB691344BB62BA6ABB699A4207DBBA6A4B
:1013A000BB69D31ABB627A6A7B6913447B627A6A2F
:1013B0003B6A10461946064B9847FB6A0133FB62AD
:1013C000FA6ABB699A42DEDD3037BD4680BD00BF98
:1013D0001D12400090B585B000AFF860B9607A602A
:1013E0003B60BA683B689A4203D0FA687B689A42CD
:1013F00006D1F868B9687A683B68064CA04705E0F2
:10140000F868B9687A683B68034CA0471437BD4652
:1014100090BD00BF1D144000B512400090B587B0CC
:1014200000AFF860B9607A603B6007F10C0007F12B
:1014300008013A1D3B46264CA047F868B9687A680F
:10144000FB68D31A5C1C3A68BB68D31A0133224686
:10145000204CA047FB689AB2BB689BB21046194665
:101460001D4B98471D4B98477A68FB68D31A013388
:101470003968BA688A1A013202FB03F33B613B699F
:10148000174AA2FB0323DB097B6103E01548F02127
:10149000154B98477B695A1E7A61002BF6D1396942
:1014A0000F4BA3FB0123DA0913461B019B1A1B01F7
:1014B000CA1A0C4811460C4B98470C4B1A680C4B37
:1014C0001B6800200021034CA0471C37BD4690BD7F
:1014D000C10B4000ED104000E11140004D094000FB
:1014E00089888888A4080020C109400000000020E5
:1014F0000400002080B588B000AFF860B9607A6061
:101500007B68002B01D1012376E07B685B00C3F18F
:101510000303FB610023BB617B687B6167E0FA68C2
:10152000BB69D118BA687B69134408461946344B25
:101530009847FA68BB69D118BA687B69D31A08461C
:1015400019462F4B9847FA68BB69D11ABA687B696C
:101550001344084619462A4B9847FA68BB69D11AC2
:10156000BA687B69D31A08461946254B9847FA682A
:101570007B69D118BA68BB69134408461946204BE9
:101580009847FA687B69D118BA68BB69D31A0846CC
:1015900019461B4B9847FA687B69D11ABA68BB6930
:1015A000134408461946164B9847FA687B69D11AC6
:1015B000BA68BB69D31A08461946114B9847FB69AC
:1015C000002B06DABB699A00FB6913440633FB6102
:1015D0000AE0BA697B69D31A9A00FB6913440A339B
:1015E000FB617B69013B7B61BB690133BB61BA690C
:1015F0007B699A4293D9002318462037BD4680BDA7
:101600001D12400080B58AB000AFF860B960134683
:10161000FB71FA7913469B0013449B00A3F52073DA
:10162000FB6100233B624DE03B6A5A00FB691344B7
:10163000BB61BB6901337B6100237B621AE0244AF2
:10164000BB6913441B781A467B6AC3F1070342FA4D
:1016500003F303F00103002B09D0FA683B6AD118A9
:10166000BA687B6A1344084619461A4B98477B6A46
:1016700001337B627B6A072BE1D900237B621BE08D
:10168000134A7B6913441B781A467B6AC3F107032C
:1016900042FA03F303F00103002B0AD0FA683B6A15
:1016A000D118BA687B6A1344083308461946094BB7
:1016B00098477B6A01337B627B6A052BE0D93B6AE2
:1016C00001333B623B6A092BAED92837BD4680BD4A
:1016D0001C8F40001D12400080B586B000AFF8603E
:1016E000B9607A60FB687B611CE07B681B780A2B21
:1016F00008D10E231A46BB6813440233BB607B69D2
:10170000FB600CE07B681B78F868B9681A46094BE7
:1017100098470A231A46FB6813440233FB607B6830
:1017200001337B607B681B78002BDED11837BD4608
:1017300080BD00BF0516400080B485B000AFF860E2
:10174000B9607A60FA68BB681B0113447A681A6052
:101750001437BD465DF8047B704700BF80B485B088
:1017600000AFF860B9607A60FA68BB681B01134487
:101770007A685A601437BD465DF8047B704700BF35
:1017800080B485B000AFF860B9607A60FA68BB6871
:101790001B01134408337A681A601437BD465DF89C
:1017A000047B704780B485B000AFF860B9607A60A0
:1017B000FA68BB681B01134408337A685A6014370F
:1017C000BD465DF8047B704780B485B000AFF8601B
:1017D000B9607A607B68002B03D0FB68BA685A66F0
:1017E00002E0FB68BA681A661437BD465DF8047BF0
:1017F000704700BF80B485B000AFF860B9607A6010
:10180000FB68BA68C3F884207B685B004FF4004231
:10181000B2FBF3F3013BC3F30D02FB68C3F88C206A
:101820001437BD465DF8047B704700BF80B487B0B5
:1018300000AFF860B9607A60FB687A685A64BB6888
:10184000B3F1C05F4AD0B3F1C05F08D8B3F1006F05
:1018500016D0B3F1805F2CD0002B69D064E0B3F1D7
:10186000205F65D0B3F1205F03D8B3F1005F4AD0A9
:101870005AE0B3F1405F5BD0B3F1605F58D053E002
:10188000FB681B6F7B61FB681A6F7B68D9437B69C0
:101890000B401A40FB681A67FB685B6F7B61FB6853
:1018A0005A6F7B68D9437B690B401A40FB685A67C3
:1018B0003AE0FB681B6F7B617A687B691A43FB68BF
:1018C0001A67FB685B6F7B61FB685A6F7B68D94363
:1018D0007B690B401A40FB685A6725E0FB681B6F69
:1018E0007B61FB681A6F7B68D9437B690B401A40A8
:1018F000FB681A67FB685B6F7B617A687B691A43D8
:10190000FB685A6710E0FB681B6F7B617A687B6934
:101910001A43FB681A67FB685B6F7B617A687B69B7
:101920001A43FB685A6700BFFB687A685A6000E098
:1019300000BF1C37BD465DF8047B704780B584B09E
:1019400000AFF860B9607A60F868B968184B9847DA
:101950007B6803F00103F868B9681A46154B98478D
:101960007B6803F00A03002B03D0FB68BA681A6295
:1019700002E0FB68BA685A627B6803F00203002B3E
:1019800004D0FB68BA68C3F8802008E07B6803F0E5
:101990000803002B03D0FB68BA68C3F88420FB68F7
:1019A000BA685A61FB68BA681A601037BD4680BDD4
:1019B000A91A4000C917400080B584B000AFF86094
:1019C000B9607A603B60F868B968124B9847F8686C
:1019D000B968BA69104B98473B68002B03D0FB6885
:1019E000BA681A6502E0FB68BA685A657B68002B22
:1019F00003D0FB68BA681A6302E0FB68BA685A63EE
:101A0000FB68BA681A61FB68BA681A601037BD468D
:101A100080BD00BFA91A4000C917400080B485B03E
:101A200000AFF860B9607A607B6803F01003002BA8
:101A300020D0FB68BA68C3F8B0207B6803F02003AD
:101A4000002B04D0FB68BA68C3F8D42003E0FB681D
:101A5000BA68C3F8D0207B6803F04003002B04D0A1
:101A6000FB68BA68C3F8C02008E0FB68BA68C3F82E
:101A7000C42003E0FB68BA68C3F8B4201437BD463D
:101A80005DF8047B704700BF80B483B000AF78601E
:101A900039607B68DB6C7B683A681A640C37BD463A
:101AA0005DF8047B704700BF80B483B000AF7860FE
:101AB00039607B683A685A640C37BD465DF8047B30
:101AC000704700BF80B483B000AF78607B68DB6C88
:101AD00018460C37BD465DF8047B704780B483B070
:101AE00000AF78607B689B6C18460C37BD465DF88C
:101AF000047B704790B587B002AF78603960786832
:101B0000654B9847F8603B6803F0F043B3F1005F22
:101B10006BD0B3F1005F09D8B3F1805F2DD0B3F182
:101B2000C05F46D0B3F1006F0BD0AEE0B3F1405FC1
:101B300000F08380B3F1605F7FD0B3F1205F70D09D
:101B4000A3E07B6803F01F03012202FA03F3F868A5
:101B50004FF000611A46514B98477B6803F01F0312
:101B6000012202FA03F31A463B6803F00103F86806
:101B700011461A464A4B984789E07B6803F01F03D9
:101B8000012202FA03F3F8684FF080511A46434BE2
:101B900098477B6803F01F03012202FA03F31A46F9
:101BA0003B6803F00103F86811461A463C4B98471E
:101BB0006DE07B6803F01F03012202FA03F3F8686B
:101BC0004FF0C0511A46354B98477B6803F01F030E
:101BD000012202FA03F31A463B6803F00103F86896
:101BE00011461A462E4B984751E07B6803F01F03BD
:101BF000012202FA03F3F8684FF000511A46274B0E
:101C000098477B6803F01F03012202FA03F31A4688
:101C10003B6803F00103F86811461A46204B9847C9
:101C200035E07B6803F01F03012202FA03F3F86832
:101C300019463A681B4B984729E07B6803F01F035D
:101C4000012202FA03F319463B6803F06053B3F133
:101C5000605F0CBF01230023DBB21A463B6803F030
:101C60000403002B14BF01230023DBB21C463B6896
:101C700003F00103002B14BF01230023DBB2009308
:101C8000F8682346084CA04701E0002300E0012348
:101C900018461437BD4690BDD91D40002D18400090
:101CA000C91740003D194000B919400090B587B0F0
:101CB00002AFF860B9607A607B6803F0F043B3F17B
:101CC000005F43D0B3F1005F09D8B3F1805F1FD04C
:101CD000B3F1C05F2BD0B3F1006F0AD06DE0B3F168
:101CE000405F48D0B3F1605F45D0B3F1205F3CD096
:101CF00063E0F8684FF00061BA68334B98477B683F
:101D000003F00103F868B9681A46304B984756E06B
:101D1000F8684FF08051BA682B4B98477B6803F006
:101D20000103F868B9681A46284B984747E0F868F5
:101D30004FF0C051BA68244B98477B6803F0010309
:101D4000F868B9681A46214B984738E0F8684FF0B0
:101D50000051BA681C4B98477B6803F00103F86890
:101D6000B9681A46194B984729E0F868B9687A6843
:101D7000174B984723E07B6803F06053B3F1605F33
:101D80000CBF01230023DBB21A467B6803F0040377
:101D9000002B14BF01230023DBB21C467B6803F039
:101DA0000103002B14BF01230023DBB20093F8686A
:101DB000B9682346074CA04701E0002300E0012357
:101DC00018461437BD4690BD2D184000C917400075
:101DD0003D194000B919400080B485B000AF78606B
:101DE0007B685B0903F5001303F207735B02FB607A
:101DF000FB6818461437BD465DF8047B704700BF8A
:101E000080B584B000AF7860396078682A4B984715
:101E1000F8607868294B98470246FB681340FB60DE
:101E2000FB68002B38D00023BB6032E0244ABB683B
:101E30001B0113441A683B689A4223D1204ABB68AD
:101E40001B0113445A68FB681340002B1AD01C4A2C
:101E5000BB681B01134408335B681949BA68120157
:101E60000A4410681649BA6812010A4452681146B9
:101E70009847134ABB681B0113445B68DB43FA684D
:101E80001340FB60BB680133BB60BB68062B00D905
:101E900002E0FB68002BC9D10A4B1B68002B07D05E
:101EA000094B1B68002B03D0074B1B6878689847C9
:101EB0001037BD4680BD00BFC51A4000DD1A400086
:101EC000640C0020140D0020D80C002080B586B0D2
:101ED00000AFF860B9607A603B60134B1B68062B5B
:101EE00001D901231CE0104B1B681B010F4A13444E
:101EF0007B617B69BA681A607B697A685A607B6922
:101F00003A689A607B693A6ADA60074B1B6801336A
:101F1000054A1360F86879683A68054B98470023CA
:101F200018461837BD4680BDD40C0020640C002034
:101F30001D1A400080B500AF02480B21024B9847A4
:101F400080BD00BF000E0E40011E400080B500AFF6
:101F500002480C21024B984780BD00BF00100E4084
:101F6000011E400080B500AF02480D21024B98478A
:101F700080BD00BF00120E40011E400080B485B03D
:101F800000AF78601D491D4B1B6B23F070027B680E
:101F900013430B634FF40063FB6007E0FB68002B07
:101FA00001D1012323E0FB68013BFB60134B9B6ED7
:101FB00003F00803002BF1D0104A104B1B6B23F0E9
:101FC000030343F0020313634FF40063FB6007E075
:101FD000FB68002B01D1012309E0FB68013BFB609A
:101FE000064B9B6E03F00803002BF1D0002318462C
:101FF0001437BD465DF8047B704700BF00040E40F7
:1020000080B483B000AF78607B68012B07D1084AA9
:10201000074B9B6843F0254343F480139360044BC4
:10202000044A1A600C37BD465DF8047B704700BF58
:1020300010140E40080000A580B400AF094B5B6986
:1020400003F08003002B07D0074B9B6E03F0800347
:10205000002B01D0012300E000231846BD465DF8A7
:10206000047B704710140E4000040E4080B483B00F
:1020700000AF7860184A184B1B6A43F45C1343F0B6
:102080000803136200BF144B9B6E03F40033002B54
:10209000F9D01149104B1B6A23F45C1323F0700331
:1020A0007A68134343F45C130B6200BF0A4B9B6EC8
:1020B00003F40033002BF9D0074A074B1B6A23F0C7
:1020C0009B7323F4803343F45C1313620C37BD46D7
:1020D0005DF8047B704700BF00040E4080B483B0FD
:1020E00000AF786039607B68002B08D01649164B2A
:1020F0001B6A164A1A40164B13430B621EE0124924
:10210000114B1B6A23F45C1323F003033A68120299
:1021100092B2134343F45C1343F001030B6200BF1C
:10212000094B9B6E03F00103002BF9D0064A064BC6
:102130001B6A43F09B7343F4803313620C37BD4634
:102140005DF8047B704700BF00040E40FCFFC8FE32
:102150000200370180B400AF044B9B6E03F4803360
:102160001846BD465DF8047B704700BF00040E4072
:1021700080B400AF034B4FF000529A62BD465DF849
:10218000047B704700040E4080B400AF044B9B6E8C
:1021900003F002031846BD465DF8047B704700BF9C
:1021A00000040E4080B400AF034B0022DA62BD464B
:1021B0005DF8047B704700BF00040E4080B400AFA0
:1021C000044B9B6E03F004031846BD465DF8047B88
:1021D000704700BF00040E4080B483B000AF786049
:1021E0007B68222B01D901232FE07B681F2B13D89A
:1021F000194B9A697B68012101FA03F31A407B6845
:10220000012101FA03F39A421ED0134A7B6801218F
:1022100001FA03F3136117E07B68203B7B600E4BF0
:10222000D3F808217B68012101FA03F31A407B6887
:10223000012101FA03F39A4206D0074A7B68012183
:1022400001FA03F3C2F80031002318460C37BD46EB
:102250005DF8047B704700BF00040E4080B584B079
:1022600000AF274BFB60274BBB60FA68BB689A4204
:102270000DD907E0BB681A1DBA60FA68111DF96034
:1022800012681A60BB68204A9342F3D320E0FA68D0
:10229000BB689A421CD21C4A1A4BD31A7B60FA685C
:1022A0007B681344043BFB60BA687B681344043BBF
:1022B000BB600AE0BB681A1FBA60FA68111FF960B8
:1022C00012681A607B68043B7B607B68002BF1D14D
:1022D00000BF0E4BBB6004E0BB681A1DBA60002251
:1022E0001A60BB680A4A9342F6D30A4BFB600A4A5B
:1022F000FB689360094B9847094B9847FEE700BF7E
:10230000449A400000000020840800208408002037
:10231000440D00200000400000ED00E0954C40001E
:10232000F92A400080B400AFFEE700BF80B400AFE0
:102330005D4B1B6B03F00303032B00F2968001A29D
:1023400052F823F05523400075234000BF2340007E
:10235000BF234000554B5B6903F08003002B04D082
:10236000534B4FF400421A6080E0514B4FF4FA4255
:102370001A607BE04C4B1B6A03F08073002B03D088
:102380004B4B4C4A1A6019E0494B4B4A1A60464B7A
:102390001B6A03F07003102B08D0202B0AD0002BEF
:1023A00000D00BE0424B444A1A6007E0404B434ADE
:1023B0001A6003E03E4B3F4A1A6000BF56E03A4BBA
:1023C0001B6A03F08073002B03D0394B394A1A6023
:1023D00019E0374B384A1A60334B1B6A03F070031D
:1023E000102B08D0202B0AD0002B00D00BE0304B54
:1023F000314A1A6007E02E4B304A1A6003E02C4B3A
:102400002C4A1A6000BF284B1B6B03F00303022BFE
:1024100015D1254B9A6A2A4B13401B0C0133244AD1
:10242000126802FB03F3224A13601F4B9B6ADBB264
:102430001F4A1268B2FBF3F31D4A136016E01A4BF1
:10244000DA6A1F4B13401B0C0133194A126802FB56
:1024500003F3174A1360144BDB6ADBB2144A1268A9
:10246000B2FBF3F3124A136000E000BF0E4B1B6B8C
:1024700003F07003702B08D10D4B1B68114AA2FBAF
:1024800003235B080A4A136009E0074B1B6B03F048
:1024900070031A09064B1B68D340054A1360BD46FA
:1024A0005DF8047B704700BF00040E4010140E401E
:1024B00008000020001BB70000093D0000127A0050
:1024C0000000FF07ABAAAAAA80B483B000AF78606F
:1024D0007B68224A934208D8214B4FF080621A60F1
:1024E000204B4FF080621A6033E07B681E4A9342B3
:1024F00006D81B4B1D4A1A601A4B1C4A1A6028E06A
:102500007B681B4A934206D8154B1A4A1A60154B32
:10251000184A1A601DE07B68174A934206D8104B90
:10252000164A1A600F4B154A1A6012E07B68144A6B
:10253000934208D80A4B4FF004221A60094B4FF01F
:1025400004221A6005E0064B0E4A1A60054B0D4A3C
:102550001A600C37BD465DF8047B7047FF2C3101D3
:10256000000A0E40000C0E40FF59620200010004F8
:10257000FF86930300020004FFB3C40400030004B9
:10258000FFE0F5050005000480B485B000AF786079
:10259000104BFB60104B1B68002B02D10E4B0F4AF7
:1025A0001A600D4B1B68BB60BA687B681A44FB68F5
:1025B0009A4202DD4FF0FF3306E0074B1A687B6852
:1025C0001344054A1360BB6818461437BD465DF8CE
:1025D000047B7047FC7F0220DC0C0020483D00207B
:1025E00080B483B000AF0346FB71084997F9073008
:1025F0005B09FA7902F01F02012000FA02F241F8A9
:1026000023200C37BD465DF8047B704700E100E0F5
:1026100080B483B000AF03463960FB7197F907308F
:10262000002B0BDA0D49FB7903F00F03043B3A68EA
:10263000D2B21201D2B20B441A7609E0084997F9D6
:1026400007303A68D2B21201D2B20B4483F80023A9
:102650000C37BD465DF8047B704700BF00ED00E01D
:1026600000E100E080B483B000AF78607B68072BA6
:1026700025D801A252F823F0992640009F26400059
:10268000A5264000AB264000AF264000B326400000
:10269000B7264000BB2640004FF4FA4310E04FF449
:1026A00000430DE04FF400430AE0084B08E0084BFC
:1026B00006E0084B04E0074B02E0064B00E0002375
:1026C00018460C37BD465DF8047B704700093D0095
:1026D00000127A00001BB70080B500AF0620044B43
:1026E0009847024613469B0013449B00184680BD42
:1026F0006526400080B500AF024B984703465B0853
:10270000184680BDD926400080B582B000AF786001
:1027100039600348034B98470837BD4680BD00BF6A
:1027200000800340FD014000F0B587B000AF786045
:102730000A20594B9847594B786898470246584B9E
:1027400010465849984703461A46574B10464FF0D3
:102750008B41984703461A46544B10469847024609
:102760000B46C7E90423524801214FF00232514B76
:1027700098474F480121504A504B98474C480121F7
:102780004F4A504B98474A48012103224E4B9847E5
:102790004E4BF0221A604D4B4FF4A0725A604B4BD7
:1027A00000229A60494B6FF07F42DA60484B9847AD
:1027B0004648484B98470820474B98476FF07F4062
:1027C000464B984700200021F0224FF4A073444E5E
:1027D000B047444B984700200021434B98470020C6
:1027E0003E4B98477820A0212822404B9847D7E9B4
:1027F00004013F4B984702460B463E4E1046194691
:102800004FF000023C4BB04702460B463B4E4FF0A8
:1028100000003B49B04702460B4610461946394B6B
:1028200098470346FB603C697B6983F0004520467E
:102830002946354B984702460B462E4C1046194602
:102840004FF000022C4BA04702460B462F4C10467F
:1028500019464FF000022E4BA04702460B46104689
:102860001946284B98470346BB607820A021FA6898
:10287000BB68284CA04728481421284A7B68284C6C
:10288000A0470020154B98470A201421224A254BC7
:1028900098471C37BD46F0BDD9214000454940004E
:1028A000F5494000DB0F49405D4B40006D41400061
:1028B00000000E403917400004040A0A5D1740006A
:1028C0000A00160081174000A51740001C0D0020CB
:1028D000CD084000F10C400045084000B910400010
:1028E0001D14400081104000E1114000F51440002B
:1028F0004D2B40001542400000004440AD3E4000DA
:1029000000005E4099474000D52B4000B13E40009A
:1029100000006440D51340002C0D00209C96400020
:10292000814D4000D916400090B583B002AF0C2015
:10293000104B9847104808215922104B98470E48D1
:1029400008210A220E4B98470E4B00930A480C218F
:10295000082259230C4CA047074808210B4B9847E5
:102960000C2000210A4B98470C200A4B984704374B
:10297000BD4690BDD921400000100E403D194000D9
:10298000F517400009274000CD1E4000891A40007D
:1029900011264000E125400098B500AF1D20154BE1
:1029A0009847154B9847034614481946144A4FF464
:1029B0008023144CA047114801214FF440120123F9
:1029C000114CA0470D4800210022104B98470B489E
:1029D00005210F4B984709480E4B98471D200E4B79
:1029E000984706480D4B9847044820210C4B9847C0
:1029F00098BD00BFD9214000F5264000008003406B
:102A000000A8610029014000BD0140008D01400087
:102A1000150240009D024000E1254000FD014000FC
:102A20006902400080B582B000AF0A480A4B98475F
:102A300078607B6803F02003002B07D00548052150
:102A4000064B984738603868054B98470837BD46AD
:102A500080BD00BF00800340850240003902400075
:102A60002927400080B582B000AF06480021064B00
:102A7000984703467B607B680448054B98470837B6
:102A8000BD4680BD0000014065034000008003405A
:102A9000FD01400080B582B000AF04237B601720A9
:102AA0000E4B98470E48002144F204020D4B984704
:102AB0000B48002140F217220B4B984717200B4B75
:102AC0009847074800211022094B984704480021E5
:102AD000084B98470837BD4680BD00BFD92140004C
:102AE00000000140C102400019034000E125400000
:102AF0003D034000F902400080B500AF0A4B984703
:102B00000A4B98470A4B984700200A4B98470A4BB4
:102B100098470A4B98470020094B98470A201421F0
:102B2000084A094B9847FEE7650640000907400040
:102B3000952A400029274000292940009929400072
:102B4000B9104000AC964000D916400030B51F4A7D
:102B500021F00043934287B01BDD1D4A934205DDFF
:102B600002460B4601F0A2F907B030BD02AA00F000
:102B70007BF800F00303012BDDE9020116D0022BE4
:102B80000DD0EBB10124DDE90423009400F0B8FF7F
:102B9000EAE70022002300F08BFA07B030BDDDE940
:102BA000042300F085FA01F10041DDE7DDE9044589
:102BB000009322462B4600F0A3FF01F10041D3E72A
:102BC000DDE9042300F074FACEE700BFFB21E93F02
:102BD000FFFFEF7F30B5224A21F00043934287B0D8
:102BE0001BDD204A934205DD02460B4601F05EF9EB
:102BF00007B030BD02AA00F037F800F0030001284A
:102C00001ED0022811D010B3DDE90201DDE9042352
:102C100000F04EFA01F10041EAE7002300930022A0
:102C2000002300F06DFF07B030BD0124DDE9020193
:102C3000DDE90423009400F063FF01F10041D7E7D0
:102C4000DDE90201DDE9042300F032FAD0E70124D6
:102C5000DDE90201DDE90423009400F051FFC7E73C
:102C6000FB21E93FFFFFEF7F2DE9F04F964E21F06A
:102C7000004BB3458FB00C4640F381809246934A97
:102C8000934526DC002986A3D3E9002340F3A881DD
:102C900001F00CF98E4B9B4504460D4600F08480F4
:102CA00081A3D3E9002301F001F902460B46CAE9EA
:102CB00000232046294601F0F9F87BA3D3E900233D
:102CC00001F0F4F80125CAE9020128460FB0BDE879
:102CD000F08F804A934540F384807F4A934559DCC6
:102CE0004FEA2B55A5F21645ABEB0557394606467C
:102CF00001F02AFD01F028FA8046894602460B467B
:102D000030463946CDE9088901F0D0F80022734BEE
:102D100001F080FA0F46064601F016FD01F014FAA4
:102D200002460B468046894630463946CDE90A8937
:102D300001F0BCF80022694B01F06CFA002200237C
:102D4000CDE90C0101F0CEFC002800F075810023D4
:102D500040464946002201F0C5FC002814BF01236B
:102D6000022302225E49009201912A4608A8514698
:102D700000F0C2FA002CC0F25181054606E0C2E91B
:102D8000000100250024C2E90245002528460FB0B5
:102D9000BDE8F08F02460B4601F088F80025CAE92D
:102DA0000201CAE90001F1E741A3D3E9002301F0E0
:102DB0007DF841A3D3E900230D46044601F076F8DF
:102DC00002460B46CAE900232946204601F06EF868
:102DD00039A3D3E9002301F069F80125CAE902010A
:102DE000D4E700F043FF36A3D3E9002306460F469D
:102DF00001F010FA00223B4B01F05AF801F0A4FC5C
:102E0000054601F0A1F926A3D3E90023CDE9040189
:102E100001F000FA02460B463046394601F046F80A
:102E200021A3D3E9002380468946DDE9040101F0AE
:102E3000F1F91F2DCDE902014046494656DC2A4BE7
:102E40006A1E53F822305B4550D0DDE9022301F0C1
:102E50002DF802460B46CAE9002307460E463A46BD
:102E600033464046494601F021F8DDE9022301F0EE
:102E70001DF8002C02460B46CAE9022386DA06F149
:102E8000004601F10041CAF80070CAF80460CAF8AF
:102E90000C10CAF808006D4278E700BFAFF300805D
:102EA00000004054FB21F93F3163621A61B4D03D08
:102EB0000000601A61B4D03D7370032E8A19A33BE1
:102EC00083C8C96D305FE43FFB21E93F7BD90240F5
:102ED000FB21F93FFB213941FFFFEF7F00007041EB
:102EE000389740000000E03FB8964000DDE902233B
:102EF00000F0DCFF0E464FEA2B5BC6F30A53C3EB30
:102F00000B03102B0746CAE90001A8DD5CA3D3E937
:102F10000023DDE9040101F07DF906460F46324643
:102F20003B464046494600F0C1FFCDE90601DDE9D8
:102F300006234046494600F0B9FF32463B4600F0C2
:102F4000B5FF51A3D3E9002306460F46DDE904018E
:102F500001F060F932463B4600F0A8FFCDE90201DE
:102F6000DDE90223DDE9060100F0A0FF0E46C1F312
:102F70000A51C1EB0B0B02463346BBF1310F07463A
:102F8000CAE9002378DD42A3D3E90023DDE9040187
:102F900001F040F906460F4632463B46DDE90601A0
:102FA00000F084FF8046894642464B46DDE9060133
:102FB00000F07CFF32463B4600F078FF36A3D3E9B1
:102FC000002306460F46DDE9040101F023F93246ED
:102FD0003B4600F06BFFCDE902014046494634E72D
:102FE00000F066FF304B9B4504460D4626D02CA3CF
:102FF000D3E9002300F05CFF02460B46CAE9002338
:103000002946204600F052FF25A3D3E9002300F013
:103010004FFF4FF0FF35CAE90201B7E6DAF80420A6
:10302000DAF80C3002F1004203F100434542CAF8DD
:103030000420CAF80C30A9E6032392E610A3D3E9D2
:10304000002300F035FF10A3D3E900230D4604460A
:1030500000F02EFF02460B46CAE90023294620460F
:1030600000F024FF08A3D3E9002300F021FF4FF074
:10307000FF35CAE9020189E6DDE90689EFE600BF0E
:103080000000601A61B4D03D7370032E8A19A33B0F
:103090000000002E8A19A33BC14920259A837B3961
:1030A0003163621A61B4D03DFB21F93F000000009A
:1030B0002DE9F04F21F00047B7F1795F85B00C465C
:1030C00092469B4605466BDA01F03EFB002800F075
:1030D000E8802A4623462846214601F09BF874A33F
:1030E000D3E900238046894601F094F872A3D3E91E
:1030F000002300F0DDFE42464B4601F08BF870A342
:10310000D3E9002300F0D2FE42464B4601F082F89C
:103110006DA3D3E9002300F0CBFE42464B4601F0FD
:1031200079F86BA3D3E9002300F0C0FE42464B467A
:1031300001F070F868A3D3E9002300F0B9FE42461D
:103140004B4601F067F8CDE90001404649460022B0
:10315000634B01F05FF8DDE9002306460F46404669
:10316000494601F057F85246804689465B46284654
:10317000214601F04FF802460B464046494600F012
:1031800095FE02460B463046394600F08FFE024659
:103190000B460020534900F089FE05B0BDE8F08FD2
:1031A00002460B4601F036F841A3D3E900238046DE
:1031B000894601F02FF840A3D3E9002300F078FE00
:1031C00042464B4601F026F83DA3D3E9002300F028
:1031D0006DFE42464B4601F01DF83BA3D3E90023A8
:1031E00000F066FE42464B4601F014F838A3D3E9DE
:1031F000002300F05BFE42464B4601F00BF836A37D
:10320000D3E9002300F054FE4B46424601F002F899
:10321000354B9F42CDE9000197DD344B9F424FF083
:10322000000238DCA7F5001300202E4916461F4681
:1032300000F03CFECDE90201404649460022284B01
:1032400000F0E8FF32463B4600F030FEDDE90023A7
:1032500006460F464046494600F0DCFF524680468F
:1032600089465B462846214600F0D4FF02460B46BD
:103270004046494600F01AFE02460B4630463946A3
:1032800000F014FE02460B46DDE9020100F00EFEDE
:1032900005B0BDE8F08F164B164FCDE9022300268E
:1032A000CAE71049002005B0BDE8F08FAFF30080F9
:1032B000D43888BEE9FAA8BDC4B1B4BD9EEE213EA3
:1032C000AD529C804F7E923E9015CB19A001FA3EE4
:1032D0007751C1166CC1563F4C5555555555A53FB4
:1032E0000000E03F0000F03F3233D33F0000E93FF1
:1032F0000000E73F0000D23F2DE9F04FADF51D7D06
:103300007B4CA69E7B4D54F8264009942646D41E3D
:1033100085FB0475E417C4EBA50424EAE4741D4698
:103320000C93E34303EB4303013D02EBC303089318
:103330002B460D940395651B9C1904900A9116D495
:103340002C44013422AEA79F08E057F8250000F076
:10335000FBFE0135A542E6E9020108D0002DF4DAB2
:10336000013500200021A542E6E90201F6D1099BC2
:10337000002B31DB099A0C9B74A901EBC20BC3EB48
:103380004373039A24A9DB0001EBC20800930DF5F7
:10339000E479039B002BC0F29981049BA3F1080AF6
:1033A000009B444608EB030500260027FAE90223A8
:1033B00074E8020100F02EFF02460B463046394603
:1033C00000F076FDAC4206460F46EFD1E9E9026710
:1033D000D94508F10808DCD1099901F18043013B86
:1033E0009B001A1D10A8024403440F920E938B46B3
:1033F0004FEACB039CA91A460693BBF1000F0B447E
:1034000053E9284528DD0DF5E87A0AEB02060FAFEF
:103410000022394B2046294600F0FCFE01F094F9C9
:1034200000F092FE0022354B8046894600F0F2FE05
:1034300002460B462046294600F038FD01F084F98B
:1034400076E9022347F8040F4946404600F030FD74
:10345000564504460D46DBD1DDF82090204629462E
:103460004A4600F095FC00224FF07F5304460D467B
:1034700000F0D0FE00F000FC0022214B00F0CAFE5C
:1034800002460B462046294600F010FD04460D4634
:1034900001F05AF9804600F057FE02460B462046DE
:1034A000294600F003FD4C46002C06460F4640F32B
:1034B000F3800BF1FF3110ABC9F1180253F8213042
:1034C00043FA02F000FA02F510AA5D1BC9F11703D6
:1034D00042F8215080441D41002D3EDDBBF1000F1C
:1034E00008F1010840F38A82002214460FA911E076
:1034F00040984000ABAAAA2A0000703E000070412C
:1035000000002040C3F180700BB10860012401323B
:1035100093450DDD51F8043F002CF3D0C3F1FF13A8
:10352000013203F57F4393450B604FF00104F1DC5A
:10353000089B002B0EDD012B00F0B680022B09D179
:103540000BF1FF3210AB10A953F82230C3F315036F
:1035500041F82230022D00F08680304639460022A4
:10356000002301F0BFF8002800F0CC80099B0BF18C
:10357000FF3A53450DDC10AB0F9803EB8B03002291
:1035800053F8041D834242EA0102F9D1002A40F0B7
:103590001B82099B10AA013B52F82330002B40F0FC
:1035A0002B820E9A012352F8041D01330029FAD010
:1035B0005B441A460B930BF1010393424DDC0D9AC9
:1035C00003EB02090B9A0C9B09F180495B44CBEB9E
:1035D000020BA79A09F1FF3902EB890200924FEA28
:1035E000CB02DB00059224AA02EB030B0793069B98
:1035F00074AA02EB030A4FF00008009B53F8040F73
:10360000009300F0A1FD039B002BEBE8020127DBF8
:10361000079B03EB0804069B08EB030524AB1C4443
:103620001D44049B0026A3F108090027F9E90223A1
:1036300074E8020100F0EEFD02460B4630463946C2
:1036400000F036FCAC4206460F46EFD1059B08F170
:1036500008089845EAE90267CFD1DDF82CB0C7E643
:1036600000260027F2E732463B460020C04900F022
:103670001DFC06460F46002C3FF46FAF089ABC496C
:10368000002000F085FB02460B463046394600F02C
:103690000DFC06460F4660E711D10BF1FF3310AA6F
:1036A00052F82350ED1517E70BF1FF3210AB10A9BC
:1036B00053F82230C3F3160341F822304AE70022C0
:1036C000AC4B01F02DF858B9054646E70026002717
:1036D000E9E90267D94508F108087FF45AAE7BE6AC
:1036E000BBF1000F08F10108C8BF02253FF7FCAE8F
:1036F00032463B4600209E4900F0D8FB0225064694
:103700000F462AE7089B03955A4230463946CDF8C2
:10371000148000F03DFB0022974B04460D4600F05C
:10372000FFFF002800F0E3810022944B2046294649
:1037300000F070FD01F008F8064600F005FD0022DB
:103740008D4B00F067FD0B4602462946204600F0EF
:10375000ADFB00F0F9FF089B18330BF1010A089349
:1037600010AB43F82B0043F82A60089A80490020E8
:1037700000F00EFBBAF1000F04460D46C0F2CD80FA
:103780000AF101034FEAC30874AF10AA009302EBD9
:10379000830907EB080659F8040D00F0D5FC224612
:1037A0002B4600F037FD002266E90201734B2046EC
:1037B000294600F02FFDBE4204460D46EBD1A8F18C
:1037C000080806EB08030DF59879CDF818A0DDF888
:1037D00024A0CDF810904FF000089B46BAF1000FDE
:1037E000C0F29880B8F1000FC0F29480DFF8909199
:1037F0005D4600260027002401E0444510DCF9E97D
:103800000223F5E8020100F005FD02460B463046B2
:10381000394600F04DFB0134A24506460F46ECDA6E
:10382000049B03EBC803C3E90067009B08F1010890
:103830009845ABF1080BD1D1A69BDDF818A0DDF8B7
:103840001090032B3DD8DFE813F043000400040080
:10385000DB00009B002409EBC306254620462946D1
:1038600076E9022300F024FB4E4504460D46F5D1CF
:10387000039B002B00F08E800A982B4605F1004533
:10388000224680E83000D9E9000100F00FFBBAF1D0
:10389000000F02460B460DDD012410461946F9E9DA
:1038A000022300F005FB0134A24502460B46F4DA80
:1038B000039909B103F1004319460A9B1046C3E975
:1038C0000201059B03F007000DF51D7DBDE8F08F9B
:1038D000009B002209EBC30913461046194679E9FB
:1038E000022300F0E5FA0AF1FF3ABAF1FF3F02467F
:1038F0000B46F2D1039909B103F1004319460A9B23
:103900001046C3E90001059B03F007000DF51D7D7E
:10391000BDE8F08F0026002782E7A69B032BD0D8B6
:10392000DFE803F04F3030020DF59879039B002754
:103930003E46002B00F0C780D9F80C300A9DD9F81C
:103940000400D9F80020D9F808102F6103F10043D2
:10395000EB60059B2A6000F1004006F100466860BC
:1039600003F007006E61A9600DF51D7DBDE8F08FC5
:103970000000F03F0000E03F000070410000703E9A
:1039800048984000039B002425460DF59879002BAC
:103990007FF472AF204622460A9C29462B46C4E992
:1039A0000001D9E9000100F081FABAF1000F0246E6
:1039B0000B463FF771AF19460A9B1046C3E9020157
:1039C0007FE70022134695E710AB089A53F82A3098
:1039D0000395183ACDF814800892002B7FF4C5AEF9
:1039E00010AB03EB8A0353F8041D0AF1FF3A183AAF
:1039F0000029F8D00892B8E60123D9E5002497E51C
:103A0000BAF1000F92DD4FEACA0809EB080BDBE9B7
:103A100000677BE9022330463946CDE9002300F0F8
:103A200047FA04460D4622462B46DDE9000100F028
:103A30003DFA02460B463046394600F039FACB458E
:103A400026462F46CBE90201CBE90045E1D1BAF188
:103A5000010F7FF76BAF09EB080ADAE900670DF594
:103A60009C7B7AE902231046194632463B46CDE953
:103A7000000100F01DFA04460D4622462B46DDE902
:103A8000000100F013FA32463B4600F011FADA4525
:103A900026462F46CAE90201CAE90045E1D108F1EC
:103AA000080400274C443E4650AD3846314674E980
:103AB000022300F0FDF9AC4207460E46F5D1039B08
:103AC000002B7FF439AFD9E900233C460A9FD9E99E
:103AD0000201C7E90023059B3546C7E9020103F04F
:103AE0000700C7E904450DF51D7DBDE8F08F2046B0
:103AF000294600F029FE10ABDA4643F82B0034E6E5
:103B00002DE9F04F21F00046B6F1795F85B00C4603
:103B100090469946054604DA00F016FE002800F0AB
:103B200083802A4623462846214600F073FB2A4616
:103B3000234606460F4600F06DFB3FA3D3E9002362
:103B400082468B463046394600F064FB3CA3D3E9FD
:103B5000002300F0ABF932463B4600F05BFB3AA392
:103B6000D3E9002300F0A4F932463B4600F052FBB3
:103B700037A3D3E9002300F099F932463B4600F021
:103B800049FB35A3D3E9002300F092F90E9BCDE960
:103B900000019BB3404649460022334B00F03AFBFC
:103BA000DDE90023CDE902015046594600F032FB21
:103BB00002460B46DDE9020100F078F932463B4649
:103BC00000F028FB42464B4600F070F924A3D3E9ED
:103BD000002306460F465046594600F01BFB02469E
:103BE0000B463046394600F063F902460B4628463C
:103BF000214600F05BF905B0BDE8F08FDDE9002358
:103C00003046394600F006FB15A3D3E9002300F047
:103C10004DF952465B4600F0FDFA2A46234600F075
:103C200047F905B0BDE8F08F2846214605B0BDE84C
:103C3000F08F00BFAFF300807CD5CF5A3AD9E53D75
:103C4000EB9C2B8AE6E55A3E7DFEB157E31DC73E4D
:103C5000D561C119A0012A3FA6F810111111813FA9
:103C6000495555555555C53F0000E03F21F00041ED
:103C7000704700BF000000002DE9F047C1F30A586B
:103C8000A8F2FF36132E0B460D460446024689461F
:103C900007461DDC002E40DBDFF8F08048FA06F80E
:103CA00008EA010E5EEA020217D035A3D3E9002329
:103CB00000F0FEF80022002300F03CFD20B1002DB2
:103CC00040DB29EA0805002738462946BDE8F08789
:103CD000332E06DDB6F5806F2FD020461946BDE89D
:103CE000F087A8F213424FF0FF3A2AFA02FA1AEAD2
:103CF000000FF2D022A3D3E9002300F0D9F800226C
:103D0000002300F017FD0028DED0002D1FDB4D46FC
:103D100027EA0A0738462946D8E719A3D3E900233A
:103D200000F0C6F80022002300F004FD0028CBD0EC
:103D3000002D1ADB00273D46C6E702460B4600F081
:103D4000B7F8CCE74FF4801333419944B9E7142E08
:103D500008D0C8F5866808F10308012303FA08F3C0
:103D60001F19D4D309F10109D1E725F00042064B10
:103D7000224318BF1D460027A6E700BFAFF300800F
:103D80009C7500883CE4377E0000F0BFFFFF0F0009
:103D9000F8B5C1F30A5604460D460B46174616BB46
:103DA00021F00043034332D00022374B00F032FAB7
:103DB000364A974204460D460B4637DBC1F30A5696
:103DC000363E3E4440F2FE72964215DD22462B46B8
:103DD00029A1D1E9000100F05DF827A3D3E9002370
:103DE00000F018FAF8BD40F2FF72964224D03E442B
:103DF00040F2FE729642E9DC002E09DD23F0FF431B
:103E000023F4E00343EA065520462946F8BDF8BDF1
:103E100016F1350F15DA4CF250339F4222462B46ED
:103E20001DDC17A1D1E9000100F034F814A3D3E997
:103E3000002300F0EFF9F8BD02460B4600F038F819
:103E4000F8BD23F0FF4323F4E003363643EA06557A
:103E50002046294600220E4B00F0DCF9F8BD06A1F1
:103E6000D1E9000100F016F803A3D3E9002300F024
:103E7000D1F9F8BDAFF300809C7500883CE4377E33
:103E800059F3F8C21F6EA50100005043B03CFFFF7C
:103E90000000903C03F0004321F0004243EA02019D
:103EA000704700BF81F0004102E000BF83F0004393
:103EB00030B54FEA41044FEA430594EA050F08BFC5
:103EC00090EA020F1FBF54EA000C55EA020C7FEA89
:103ED000645C7FEA655C00F0E2804FEA5454D4EB06
:103EE0005555B8BF6D420CDD2C4480EA020281EAD0
:103EF000030382EA000083EA010180EA020281EA08
:103F00000303362D88BF30BD11F0004F4FEA013159
:103F10004FF4801C4CEA113102D0404261EB410168
:103F200013F0004F4FEA03334CEA133302D05242EE
:103F300063EB430394EA050F00F0A780A4F10104AA
:103F4000D5F1200E0DDB02FA0EFC22FA05F28018E4
:103F500041F1000103FA0EF2801843FA05F35941CA
:103F60000EE0A5F120050EF1200E012A03FA0EFC49
:103F700028BF4CF0020C43FA05F3C01851EBE37173
:103F800001F0004507D54FF0000EDCF1000C7EEB90
:103F900000006EEB0101B1F5801F1BD3B1F5001FCE
:103FA0000CD349085FEA30004FEA3C0C04F10104ED
:103FB0004FEA445212F5800F80F09A80BCF1004F16
:103FC00008BF5FEA500C50F1000041EB045141EA98
:103FD000050130BD5FEA4C0C404141EB010111F499
:103FE000801FA4F10104E9D191F0000F04BF014644
:103FF0000020B1FA81F308BF2033A3F10B03B3F122
:1040000020020CDA0C3208DD02F1140CC2F10C02B1
:1040100001FA0CF021FA02F10CE002F11402D8BF0F
:10402000C2F1200C01FA02F120FA0CFCDCBF41EADB
:104030000C019040E41AA2BF01EB0451294330BDAA
:104040006FEA04041F3C1CDA0C340EDC04F1140487
:10405000C4F1200220FA04F001FA02F340EA03005E
:1040600021FA04F345EA030130BDC4F10C04C4F1A4
:10407000200220FA02F001FA04F340EA0300294684
:1040800030BD21FA04F0294630BD94F0000F83F4CE
:10409000801306BF81F480110134013D4EE77FEAB1
:1040A000645C18BF7FEA655C29D094EA050F08BFFD
:1040B00090EA020F05D054EA000C04BF19461046DE
:1040C00030BD91EA030F1EBF0021002030BD5FEA22
:1040D000545C05D14000494128BF41F0004130BD4A
:1040E00014F580043CBF01F5801130BD01F000459E
:1040F00045F0FE4141F470014FF0000030BD7FEA11
:10410000645C1ABF194610467FEA655C1CBF0B460B
:10411000024650EA013406BF52EA033591EA030F22
:1041200041F4002130BD00BF90F0000F04BF00211A
:10413000704730B54FF4806404F132044FF000054D
:104140004FF0000150E700BF90F0000F04BF0021C6
:10415000704730B54FF4806404F1320410F000452C
:1041600048BF40424FF000013EE700BF42004FEA27
:10417000E2014FEA31014FEA02701FBF12F07F43A4
:1041800093F07F4F81F06051704792F0000F14BFA1
:1041900093F07F4F704730B54FF4607401F00045E5
:1041A00021F0004120E700BF50EA010208BF70473C
:1041B00030B54FF000050AE050EA010208BF704731
:1041C00030B511F0004502D5404261EB41014FF49A
:1041D000806404F132045FEA915C3FF4DCAE4FF09E
:1041E00003025FEADC0C18BF03325FEADC0C18BF85
:1041F000033202EBDC02C2F1200300FA03FC20FAD6
:1042000002F001FA03FE40EA0E0021FA02F1144422
:10421000C1E600BF70B54FF0FF0C4CF4E06C1CEA37
:1042200011541DBF1CEA135594EA0C0F95EA0C0FAC
:1042300000F0DEF82C4481EA030621EA4C5123EA1F
:104240004C5350EA013518BF52EA033541F480114E
:1042500043F4801338D0A0FB02CE4FF00005E1FB01
:1042600002E506F00042E0FB03E54FF00006E1FB4B
:1042700003569CF0000F18BF4EF0010EA4F1FF048E
:10428000B6F5007F64F5407404D25FEA4E0E6D41CE
:1042900046EB060642EAC62141EA55514FEAC520DF
:1042A00040EA5E504FEACE2EB4F1FD0C88BFBCF55B
:1042B000E06F1ED8BEF1004F08BF5FEA500E50F10C
:1042C000000041EB045170BD06F0004646EA0101D2
:1042D00040EA020081EA0301B4EB5C04C2BFD4EB04
:1042E0000C0541EA045170BD41F480114FF0000EFD
:1042F000013C00F3AB8014F1360FDEBF002001F06B
:10430000004170BDC4F10004203C35DA0C341BDCE4
:1043100004F11404C4F1200500FA05F320FA04F0B6
:1043200001FA05F240EA020001F0004221F00041EA
:1043300010EBD37021FA04F642EB06015EEA430E5D
:1043400008BF20EAD37070BDC4F10C04C4F120058D
:1043500000FA04F320FA05F001FA04F240EA020040
:1043600001F0004110EBD37041F100015EEA430E11
:1043700008BF20EAD37070BDC4F1200500FA05F231
:104380004EEA020E20FA04F301FA05F243EA0203B0
:1043900021FA04F001F0004121FA04F220EA0200BF
:1043A00000EBD3705EEA430E08BF20EAD37070BD05
:1043B00094F0000F0FD101F00046400041EB0101E5
:1043C00011F4801F08BF013CF7D041EA060195F0C7
:1043D000000F18BF704703F00046520043EB030381
:1043E00013F4801F08BF013DF7D043EA060370476E
:1043F00094EA0C0F0CEA135518BF95EA0C0F0CD079
:1044000050EA410618BF52EA4306D1D181EA0301BE
:1044100001F000414FF0000070BD50EA410606BFB8
:104420001046194652EA430619D094EA0C0F02D1FD
:1044300050EA013613D195EA0C0F05D152EA033642
:104440001CBF104619460AD181EA030101F0004160
:1044500041F0FE4141F470014FF0000070BD41F0A9
:10446000FE4141F4780170BD70B54FF0FF0C4CF483
:10447000E06C1CEA11541DBF1CEA135594EA0C0FA2
:1044800095EA0C0F00F0A7F8A4EB050481EA030EEF
:1044900052EA03354FEA013100F088804FEA0333D6
:1044A0004FF0805545EA131343EA12634FEA0222A4
:1044B00045EA111545EA10654FEA00260EF0004165
:1044C0009D4208BF964244F1FD0404F5407402D2B7
:1044D0005B084FEA3202B61A65EB03055B084FEA48
:1044E00032024FF480104FF4002CB6EB020E75EB45
:1044F000030E22BFB61A754640EA0C005B084FEA6D
:104500003202B6EB020E75EB030E22BFB61A7546E9
:1045100040EA5C005B084FEA3202B6EB020E75EB34
:10452000030E22BFB61A754640EA9C005B084FEAAC
:104530003202B6EB020E75EB030E22BFB61A7546B9
:1045400040EADC0055EA060E18D04FEA051545EAA8
:1045500016754FEA06164FEAC30343EA52734FEA51
:10456000C2025FEA1C1CC0D111F4801F0BD141EACA
:1045700000014FF000004FF0004CB6E711F4801F2F
:1045800004BF01430020B4F1FD0C88BFBCF5E06F0F
:104590003FF6AFAEB5EB030C04BFB6EB020C5FEA1F
:1045A000500C50F1000041EB045170BD0EF0004E74
:1045B0004EEA113114EB5C04C2BFD4EB0C0541EAA6
:1045C000045170BD41F480114FF0000E013C90E6A3
:1045D00045EA060E8DE60CEA135594EA0C0F08BF67
:1045E00095EA0C0F3FF43BAF94EA0C0F0AD150EA66
:1045F00001347FF434AF95EA0C0F7FF425AF1046F9
:1046000019462CE795EA0C0F06D152EA03353FF420
:10461000FDAE1046194622E750EA410618BF52EA9D
:1046200043067FF4C5AE50EA41047FF40DAF52EA71
:1046300043057FF4EBAE12E74FF0FF3C06E000BF0E
:104640004FF0010C02E000BF4FF0010C4DF804CD1B
:104650004FEA410C7FEA6C5C4FEA430C18BF7FEADB
:104660006C5C1BD001B050EA410C0CBF52EA430C09
:1046700091EA030F02BF90EA020F0020704710F189
:10468000000F91EA030F58BF994208BF90422CBF18
:10469000D8176FEAE37040F0010070474FEA410C11
:1046A0007FEA6C5C02D150EA013C07D14FEA430C2F
:1046B0007FEA6C5CD6D152EA033CD3D05DF8040BA0
:1046C000704700BF8446104662468C4619466346D2
:1046D00000E000BF01B5FFF7B7FF002848BF10F1A9
:1046E000000F01BD4DF808EDFFF7F4FF0CBF0120EE
:1046F00000205DF808FB00BF4DF808EDFFF7EAFF6A
:1047000034BF012000205DF808FB00BF4DF808ED24
:10471000FFF7E0FF94BF012000205DF808FB00BF19
:104720004DF808EDFFF7CEFF94BF012000205DF8A3
:1047300008FB00BF4DF808EDFFF7C4FF34BF0120B0
:1047400000205DF808FB00BF4FEA410212F500129D
:1047500015D211D56FF47873B3EB625212D94FEAC8
:10476000C12343F0004343EA505311F0004F23FAB2
:1047700002F018BF404270474FF00000704750EA07
:10478000013005D111F0004008BF6FF000407047C4
:104790004FF00000704700BF4A0011D212F500121E
:1047A00011D20DD56FF47873B3EB62520ED44FEA89
:1047B000C12343F0004343EA505323FA02F0704709
:1047C0004FF00000704750EA013002D14FF0FF3047
:1047D00070474FF00000704780F0004002E000BFDB
:1047E00081F0004142001FBF5FEA410392EA030FDC
:1047F0007FEA226C7FEA236C6AD04FEA1262D2EB26
:104800001363C1BFD218414048404140B8BF5B422A
:10481000192B88BF704710F0004F40F4000020F0C3
:104820007F4018BF404211F0004F41F4000121F0D9
:104830007F4118BF494292EA030F3FD0A2F1010223
:1048400041FA03FC10EB0C00C3F1200301FA03F161
:1048500000F0004302D5494260EB4000B0F5000F84
:1048600013D3B0F1807F06D340084FEA310102F143
:104870000102FE2A51D2B1F1004F40EBC25008BFF5
:1048800020F0010040EA03007047490040EB0000BF
:1048900010F4000FA2F10102EDD1B0FA80FCACF1EE
:1048A000080CB2EB0C0200FA0CF0AABF00EBC250ED
:1048B00052421843BCBFD0401843704792F0000FDB
:1048C00081F4000106BF80F400000132013BB5E72E
:1048D0004FEA41037FEA226C18BF7FEA236C21D0A4
:1048E00092EA030F04D092F0000F08BF0846704709
:1048F00090EA010F1CBF0020704712F07F4F04D1D7
:10490000400028BF40F00040704712F100723CBFE9
:1049100000F50000704700F0004343F0FE4040F413
:10492000000070477FEA226216BF08467FEA2363D1
:104930000146420206BF5FEA412390EA010F40F4BC
:10494000800070474FF0000304E000BF10F0004308
:1049500048BF40425FEA000C08BF704743F09643EF
:1049600001464FF000001CE050EA010208BF70470A
:104970004FF000030AE000BF50EA010208BF704791
:1049800011F0004302D5404261EB41015FEA010CA6
:1049900002BF84460146002043F0B64308BFA3F19E
:1049A0008053A3F50003BCFA8CF2083AA3EBC25380
:1049B00010DB01FA02FC634400FA02FCC2F120029F
:1049C000BCF1004F20FA02F243EB020008BF20F0D6
:1049D0000100704702F1200201FA02FCC2F120023C
:1049E00050EA4C0021FA02F243EB020008BF20EA31
:1049F000DC7070474FF0FF0C1CEAD0521EBF1CEA5F
:104A0000D15392EA0C0F93EA0C0F6FD01A4480EA4C
:104A1000010C400218BF5FEA41211ED04FF0006335
:104A200043EA501043EA5111A0FB01310CF0004061
:104A3000B1F5000F3EBF490041EAD3715B0040EA87
:104A4000010062F17F02FD2A1DD8B3F1004F40EB57
:104A5000C25008BF20F00100704790F0000F0CF02A
:104A6000004C08BF49024CEA502040EA51207F3AEE
:104A7000C2BFD2F1FF0340EAC250704740F40000C9
:104A80004FF00003013A5DDC12F1190FDCBF00F0BA
:104A900000407047C2F10002410021FA02F1C2F168
:104AA000200200FA02FC5FEA310040F1000053EA04
:104AB0004C0308BF20EADC70704792F0000F00F052
:104AC000004C02BF400010F4000F013AF9D040EA58
:104AD0000C0093F0000F01F0004C02BF490011F4EC
:104AE000000F013BF9D041EA0C018FE70CEAD153EA
:104AF00092EA0C0F18BF93EA0C0F0AD030F0004C6A
:104B000018BF31F0004CD8D180EA010000F000401D
:104B1000704790F0000F17BF90F0004F084691F0DB
:104B2000000F91F0004F14D092EA0C0F01D1420215
:104B30000FD193EA0C0F03D14B0218BF084608D1DE
:104B400080EA010000F0004040F0FE4040F4000028
:104B5000704740F0FE4040F4400070474FF0FF0CBB
:104B60001CEAD0521EBF1CEAD15392EA0C0F93EA02
:104B70000C0F69D0A2EB030280EA010C49024FEA54
:104B8000402037D04FF0805343EA111143EA10130D
:104B90000CF000408B4238BF5B0042F17D024FF4C5
:104BA000000C8B4224BF5B1A40EA0C00B3EB510FA0
:104BB00024BFA3EB510340EA5C00B3EB910F24BF89
:104BC000A3EB910340EA9C00B3EBD10F24BFA3EB0E
:104BD000D10340EADC001B0118BF5FEA1C1CE0D1D6
:104BE000FD2A3FF650AF8B4240EBC25008BF20F089
:104BF000010070470CF0004C4CEA50207F32C2BFDD
:104C0000D2F1FF0340EAC250704740F400004FF079
:104C10000003013A37E792F0000F00F0004C02BFAA
:104C2000400010F4000F013AF9D040EA0C0093F074
:104C3000000F01F0004C02BF490011F4000F013BCE
:104C4000F9D041EA0C0195E70CEAD15392EA0C0F36
:104C500008D142027FF47DAF93EA0C0F7FF470AF6E
:104C6000084676E793EA0C0F04D14B023FF44CAFB1
:104C700008466EE730F0004C18BF31F0004CCAD146
:104C800030F000427FF45CAF31F000437FF43CAF82
:104C90005FE700BF70B50F4E0F4D761BB61018BF03
:104CA000002405D0013455F8043B9847A642F9D1B9
:104CB0000A4E0B4D761B04F0AFFEB61018BF002451
:104CC00006D0013455F8043B9847A642F9D170BD8F
:104CD00070BD00BF249A4000249A40002C9A4000E6
:104CE000249A400070B4840746D0541E002A41D054
:104CF000CDB2034602E0621EE4B3144603F8015B42
:104D00009A07F8D1032C2ED9CDB245EA05250F2CF0
:104D100045EA054519D903F110022646103E0F2E2B
:104D200042F8105C42F80C5C42F8085C42F8045C03
:104D300002F11002F2D8A4F1100222F00F0204F0E6
:104D40000F041032032C13440DD91E462246043A98
:104D5000032A46F8045BFAD8221F22F00302043229
:104D6000134404F003042CB1C9B21C4403F8011B22
:104D7000A342FBD170BC704714460346C2E700BF94
:104D80000CB4F0B5244B00299DB01D683EDB4FF4F8
:104D900002730C4602900690ADF8143023AE17D083
:104DA0004C1E229A049433464FF6FF77284602A9F8
:104DB00007940196ADF8167000F05EF8421C22DBF5
:104DC000029B00221A701DB0BDE8F04002B070478F
:104DD00033464FF6FF77284602A9229A0494079497
:104DE0000196ADF8167000F047F8431C04DB1DB0C7
:104DF000BDE8F04002B070478B232B601DB0BDE8CA
:104E0000F04002B070478B232B60D9E78B232B60D7
:104E10004FF0FF30EBE700BF3804002020F0030123
:104E200010F00300C0F1000051F8043B00F1040C45
:104E30004FEACC0C6FF000021CBF22FA0CF21343B5
:104E40004FF0010C4CEA0C2C4CEA0C4CA3EB0C027E
:104E500022EA030212EACC1204BF51F8043B0430E8
:104E6000F4D0C2F1000102EA0102B2FA82F2C2F108
:104E70001F0200EBD20070472DE9F04FC1B0894608
:104E80000A920E93089002F06DFB03681793184680
:104E9000FFF7C4FFB9F80C3018901A0604D5D9F8FA
:104EA0001030002B01F08C80002330AF139325933A
:104EB0002493169319930B932397149315933C46BD
:104EC0004E460A9D2B78002B00F0A980252B02D19D
:104ED000A5E0252B03D015F8013F002BF9D10A9B43
:104EE000EB1A73B1249A25990A982060013219446B
:104EF000072A63602591249272DC08340B9A1A44C5
:104F00000B922B78002B00F0B5870023691C6D787D
:104F10008DF86F301A460C9307934FF0FF3A4B1CF5
:104F2000A5F12001582900F2D983DFE811F07002C1
:104F3000D703D7037403D703D703D703D703D70304
:104F4000D703F0020D02D703F4011102D7037B034C
:104F5000BA02BA02BA02BA02BA02BA02BA02BA0271
:104F6000BA02D703D703D703D703D703D703D7038F
:104F7000D703D703D703C9028B03D7038B03D70308
:104F8000D703D703D7036D03D703D7030503D7038D
:104F9000D703D703D703D7032303D703D7033D038F
:104FA000D703D703D703D703D703D703D703D70331
:104FB000D703D70358032C028B038B038B03FE020A
:104FC0002C02D703D703E602D7037E02FB01C003FE
:104FD0007702D7039202D7037A00D703D7034A0296
:104FE00008980793314623AA03F0C6FB50B93C4604
:104FF000079B83E70898314623AA03F0BDFB0028EE
:1050000000F08581B146B9F80C3013F0400F0B9BCE
:1050100018BF4FF0FF33184641B0BDE8F08F0A9D2E
:105020006FE70A93079B980640F1AD820E9B03F150
:10503000070929F0070303F10802D3E900890E925A
:1050400001234FF0000C8DF86FC0CDF844A0BAF1E9
:10505000000F03DB079A22F08002079258EA090248
:1050600040F04C83BAF1000F00F05184012B00F0A6
:105070004F83022B00F0908439464FEAD80242EA6F
:1050800049724FEAD90008F0070381469046303351
:1050900058EA090201F8013DEFD1079A1091D207B1
:1050A00000F144857B1A0D930D9A92455346B8BF83
:1050B0001346099300231293BCF1000F02D0099B01
:1050C00001330993079B13F002030F9302D0099B4E
:1050D00002330993079B13F0840940F00C830C9B67
:1050E000099AC2EB0308B8F1000F40F30483B8F14A
:1050F000100F2599249ADFF844A529DD53464FF077
:10510000100BC246A8461D4606E0AAF1100ABAF1E5
:10511000100F04F1080417DD01321031072A259120
:10512000249284E82008F0DD0898314623AA03F091
:1051300023FB00287FF466AFAAF1100ABAF1100F22
:105140002599249A3C46E7DC2B464546D0469A46AC
:10515000013208EB010B072ACDF894B02492C4F871
:1051600000A0C4F8048000F37B849DF86FC008346D
:10517000BCF1000F0FD0249B01330BF1010B0DF19B
:105180006F010122072BCDF894B0249384E8060028
:1051900000F3DA8308340F9B73B1249B01330BF1C6
:1051A000020B1CA90222072BCDF894B0249384E8AB
:1051B000060000F3D5830834B9F1800F00F01183A5
:1051C000119B0D9AC2EB030ABAF1000F3CDDBAF154
:1051D000100F249ADFF868942BDD49465B46A946F8
:1051E0004FF01008DDF820B00D4606E0AAF1100AD5
:1051F000BAF1100F04F1080417DD01321033072A49
:105200002593249284E82001F0DD5846314623AAF4
:1052100003F0B2FA00287FF4F5AEAAF1100ABAF151
:10522000100F259B249A3C46E7DC9B462B464D46B7
:1052300099460132D344072ACDF894B0249284E8E9
:10524000000600F375830834079BD90500F16C82D2
:10525000249B0D99109A226001338B44072BCDF8C3
:1052600094B06160249300F346830834079B5A0787
:1052700041D50C9B099A9D1A002D3CDD102D249BD5
:10528000DFF8B8A323DD4FF010085A46DDF8209070
:1052900004E0103D102D04F1080417DD0133103235
:1052A000072B25922493C4F800A0C4F80480F0DDF5
:1052B0004846314623AA03F05FFA00287FF4A2AEE5
:1052C000103D102D259A249B3C46E7DC9346013384
:1052D000AB44072BCDF894B02493C4F800A06560CC
:1052E00009DD0898314623AA03F046FA00287FF426
:1052F00089AEDDF894B00B9B099A0C998A42ACBF39
:105300009B185B180B93BBF1000F7FF473AE002367
:1053100024933C46D5E5194607981D7840F00400D3
:105320000790FCE50A93079B13F0200300F00E8121
:105330000E9B03F1070929F0070303F10802D3E9E3
:1053400000890E9200237CE61D7819462B22E6E5A3
:105350001D782A2D03F1010100F0AD87A5F1300081
:1053600009280B464FF0000A3FF6DAAD13F8015B4F
:105370000AEB8A0A00EB4A0AA5F130000928F5D9A0
:105380004AEAEA7ACCE50A93079B8DF86F209B06E0
:1053900040F1A1800E9B03F1070929F00709D9E923
:1053A000002309F108010E9190469946002A73F1F5
:1053B0000003C0F20B849DF86FC0CDF844A0012318
:1053C00045E60A939B4B1693079B8DF86F209B062F
:1053D00040F1F3800E9B03F1070929F00703D3E99D
:1053E000008903F108020E92079BD90740F1F5806E
:1053F00058EA090300F0F180079A8DF871503023C4
:1054000042F002028DF870300792022319E61D78EF
:105410001946002A7FF483AD202280E5079941F0E8
:10542000200107911D78194679E50A93079B8DF8AD
:105430006F209A0640F1A1840B990E9A4FEAE17908
:10544000136808468846043249460E92C3E90001B3
:1054500037E50E9A0A93136810934FF0000B8DF8FE
:105460006FB002F10409002B00F03B86BAF1000F87
:105470001098C0F2E9855946524602F009FB00280F
:1054800000F06C86109BCDF844B0C31A0D93CDF894
:10549000389023EAE3730993CDF848B09DF86FC0C4
:1054A0000AE6A5F13000002113F8015B01EB810150
:1054B00000EB4101A5F130000928F5D90C912FE549
:1054C0000A93079B8DF86F2043F010030793079B07
:1054D0009B063FF55FAF079BD80600F16883079BEB
:1054E000590640F164830E99B1F9008004314FEA06
:1054F000E87942464B460E9158E71D7807996C2D86
:1055000000F0CB8441F010010791194607E50E9D8C
:1055100029680C9108460028294601F10401C0F2CF
:10552000B5840E911D781946F9E4079941F04001C0
:1055300007911D781946F2E40A93079B43F0100384
:105540000793079B13F020037FF4F2AE079A12F043
:10555000100240F01983079B13F0400300F01483FE
:105560000E9913460A460432B1F800800E924FF0AD
:10557000000966E50A93079B43F010030793079B16
:1055800098063FF553AD079BD90600F10683079BAC
:105590005A0640F102830E9AB2F8008004324FF0AE
:1055A000000901230E924CE50A93234B1693079BA7
:1055B0008DF86F209B063FF50DAF079BD80640F195
:1055C000CD830E9A13461B689846079B0432D90771
:1055D0000E924FF000093FF50BAF022331E50E9913
:1055E0000A930A688DF898200023012204319C4612
:1055F00009920E918DF86F3026ABCDF844C0CDF8EE
:1056000048C00D9210935DE5079941F0080107919C
:105610001D78194683E4079941F0010107911D782F
:1056200019467CE4079941F0800107911D781946DD
:1056300075E400BFDC984000C8984000A89840007E
:10564000989840000A930E9B8DF86F2003F107098C
:1056500029F0070303F108020E921A6814925B689E
:1056600015931599149803F049F80128D346149816
:10567000159940F0598300220023FFF73DF80028D8
:1056800040F064859DF86FC0079BBE4ADFF800E3D9
:1056900023F080030793134603210020472DD8BF32
:1056A00073460991119010930D91129004E50E9894
:1056B00007990A93302203688DF8702002467825F6
:1056C00041F0020104329846AF4B169307910E92B7
:1056D0004FF000098DF871500223B2E40A938DF85F
:1056E0006F20002D00F0C683002301229C46099202
:1056F0008DF898507EE7DDF894B039E5012B7FF402
:10570000B8ACB9F1000F08BFB8F10A0F80F01C82E5
:105710000DF5807B08F130080BF8418DCBEB0703CA
:105720000D93CDF840B0BFE4652D40F3A0801498F0
:10573000159900220023FEF7D5FF002800F04581CF
:10574000249B924A226001330BF1010B0122072BAB
:10575000CDF894B02493626000F3348308341D9B29
:10576000139A934203DB079BDA077FF57FAD249BF7
:105770001899179A226001338B44072BCDF894B007
:105780006160249300F390830834139B5D1E002D09
:105790007FF76CAD102D249BDFF8F89140F3BA81B0
:1057A0004FF010085A46DDF820A004E00834103D00
:1057B000102D40F3AE8101331032072B2592249334
:1057C000C4F80090C4F80480F0DD5046314623AAA6
:1057D00002F0D2FF00287FF415AC259A249B3C46AA
:1057E000E5E70C9B099AC2EB030ABAF1000F7FF7B9
:1057F000E7ACBAF1100F249ADFF898912BDD4946F7
:105800005B46A9464FF01008DDF820B00D4606E0D3
:10581000AAF1100ABAF1100F04F1080417DD0132E1
:105820001033072A2593249284E82001F0DD58469E
:10583000314623AA02F0A0FF00287FF4E3ABAAF1CF
:10584000100ABAF1100F259B249A3C46E7DC9B46D0
:105850002B464D4699460132D344072ACDF894B0E1
:10586000249284E8000600F352820834A8E4139BD3
:10587000249D012B40F32082109B236001350BF106
:1058800001030122072D25932495626000F32682EF
:10589000083418996160013503EB010B072D179B44
:1058A000CDF894B02495236000F3248208340023BB
:1058B000149815990022FEF715FF139B002840F05D
:1058C000DE80109A013B013501329B44072D24955F
:1058D000CDF894B02260636000F30E810834199A09
:1058E0006260013593441FAB072DCDF894B0249529
:1058F00023607FF7BAAC0898314623AA02F03CFF38
:1059000000287FF47FABDDF894B03C46AEE4002B7A
:1059100032D1079BD8072FD50DF5807B30230BF8AC
:10592000413DCBEB07030D93CDF840B0FFF7BCBB77
:105930000898314623AA02F01FFF00287FF462ABCB
:10594000DDF894B03C467FE40898314623AA02F083
:1059500013FF00287FF456ABDDF894B03C461AE400
:105960000898314623AA02F007FF00287FF44AABCB
:10597000DDF894B03C461FE4CDF834A01097FFF753
:1059800093BB00BFBC984000DC984000F8984000F2
:10599000B8984000989840001698BB464FEA1813F4
:1059A00008F00F0143EA09734FEA1912984691462D
:1059B000435C0BF8013D58EA0903EFD15B46CDF893
:1059C00040B0FB1A0D93FFF76FBB1D9D002D40F3F8
:1059D0000582139A12998A421346A8BF0B461D46A8
:1059E0001099002D01EB020A0BDD249B216001338D
:1059F000AB44072BCDF894B06560249300F34D833E
:105A00000834129B002DA8BF5B1B002B1D4640F3E2
:105A1000F580102D249BDFF8F49540F3C6815A469B
:105A20004FF01008DDF820B004E00834103D102DD0
:105A300040F3BA8101331032072B25922493C4F826
:105A40000090C4F80480F0DD5846314623AA02F0E5
:105A500093FE00287FF4D6AA259A249B3C46E5E7CE
:105A60000898314623AA02F087FE00287FF4CAAACC
:105A70009DF86FC0DDF894B03C46FFF779BB03F1A9
:105A8000FF38B8F1000F7FF72AAFB8F1100FDFF839
:105A90007C9525DD5B464FF0100ADDF820B006E06E
:105AA000A8F11008B8F1100F04F1080417DD013552
:105AB0001033072D2593249584E80006F0DD584621
:105AC000314623AA02F058FE00287FF49BAAA8F1D1
:105AD0001008B8F1100F259B249D3C46E7DC9B463F
